:1000000004C100001FC100001DC100001BC1000091
:1000100019C1000017C1000015C1000013C1000084
:1000200011C100000FC100000DC100000BC1000094
:1000300009C100000C94130DDDC700000C942308C7
:100040000C944C080C9475080C949E080C94C708EA
:100050000C94F0080C9419090C9442090C946B0947
:10006000F1C00000EFC00000EDC00000EBC00000D8
:10007000E9C00000E7C00000E5C00000E3C00000E8
:10008000E1C00000DFC00000DDC00000DBC00000F8
:10009000D9C00000D7C00000D5C00000D3C0000008
:1000A000D1C00000CFC00000CDC000000C94FB1EEA
:1000B0000C94211FC7C000000C94360D0C942E0B1D
:1000C0000C94570B0C94800B0C94A90B0C94D20B32
:1000D0000C94FB0BB7C00000B5C00000B3C000001B
:1000E000B1C00000AFC00000ADC00000ABC0000058
:1000F000A9C00000A7C00000A5C00000A3C0000068
:10010000A1C000009FC000009DC000009BC0000077
:1001100099C0000097C0000095C0000093C0000087
:1001200091C000008FC000008DC000008BC0000097
:1001300089C000000C9494090C94BD090C94E60944
:100140000C940F0A0C94380A0C94610A0C948A0AD5
:100150000C94B30A0C94DC0A0C94050B73C00000D9
:1001600071C000006FC000006DC000006BC00000D7
:1001700069C0000067C0000065C0000063C00000E7
:1001800061C000005FC000005DC000005BC00000F7
:1001900059C0000057C0000055C0000053C0000007
:1001A00051C000004FC000004DC000004BC0000017
:1001B00049C0000047C0000045C0000043C0000027
:1001C00041C000003FC000003DC000003BC0000037
:1001D00039C0000037C0000035C0000033C0000047
:1001E00031C000002FC000002DC000002BC0000057
:1001F00029C000000C94A7120C945D13B30EA10E3D
:10020000A40EA70EAA0EAD0EB00E11241FBECFEF86
:10021000CDBFDFE2DEBF11E2A0E0B0E2E6EBFEE43C
:1002200002C005900D92A235B107D9F72EE2A2E5E2
:10023000B1E201C01D92AF33B207E1F70E9428205E
:100240000C945927DDCE10926822109274221092DD
:10025000752281EA80936A2280E280936B22109259
:100260006C2210926D2210926E2210926F2282E008
:1002700090E08093702290937122109272221092DB
:10028000732280E092ECA1E0B0E08093762290931C
:100290007722A0937822B093792210927A2210923A
:1002A0007B2288E080937C22809168228F5F8093FC
:1002B000682281E0089580916822815080936822AD
:1002C00008958091672281508093672280916722F0
:1002D00010926622089580E0089580E0089580914C
:1002E00009248823DCF480768032E9F580910A24A1
:1002F0008132D9F580910F24909110240797B9F598
:1003000086E792E2809311249093122487E090E094
:10031000809313249093142481E008958076803292
:1003200041F580910A24803221F0823221F581E06A
:10033000089580910F24909110240797F1F48FEB8A
:1003400091E0809315249093162486E792E280939F
:1003500011249093122487E090E0809313249093CB
:10036000142481E0089580E0089580E0089580E0FD
:10037000089580E0089580E0089580E0089508954C
:10038000FF920F931F93CF93DF938091552181119B
:100390009CC00E94E910882351F0C0915621D09151
:1003A00057210E94F610C817D90759F48EC0C09182
:1003B0005621D09157210E94F110C817D90709F48E
:1003C00084C0DFB7F894C0915821EC2FF0E0EE0F15
:1003D000FF1FE75AFE4D80819181892B09F580919D
:1003E0005221909153210196809352219093532151
:1003F0000E94E910811107C08091522190915321F0
:100400008436910558F00E94E910882349F08091C4
:100410005221909153218032934010F4DFBF55C098
:10042000109252211092532180915421811106C0C3
:1004300081E0C11180E08093582104C081E0C111A6
:1004400080E0C82F81E080935521DFBFD0E0FE011E
:10045000EE0FFF1FE75AFE4DFF24F3948081918138
:100460008034910509F4F12CFF2091F00E94E910ED
:10047000882339F00E94F6108093562190935721DB
:100480000BC00E94F110809356219093572104C015
:100490001092562110925721FE01EE0FFF1FE75ACE
:1004A000FE4D20813181AE01002456954795079479
:1004B000569547950794542F402D425A5E4D0BE6B2
:1004C00012E06F2D81E80E94A811DF91CF911F915A
:1004D0000F91FF900895811115C02091582181E05E
:1004E00090E0222311F080E090E0FC01EE0FFF1F6E
:1004F000E75AFE4D1082118210925421109255211C
:1005000080E03ECF089580E03BCF08954FB7F89448
:100510002091DF213091E021E091E121F0E0EE0F28
:10052000FF1FEE51FE4D80819181821B930B4FBFC7
:100530000895ECDF21E0892B09F420E0822F089553
:100540000F931F93CF93DF934FB7F8945091E1210E
:100550008091DE21811110C02091DF213091E021B6
:10056000C52FD0E0FE01EE0FFF1FEE51FE4D808142
:1005700091812817390718F44FBF80E023C01092EB
:10058000DF211092E02181E0511180E08093E12190
:1005900081E08093DE214FBF80E0CBDFAE010024FD
:1005A000569547950794569547950794542F402D97
:1005B0004A515E4D09E113E020E430E061E082E061
:1005C0000E94A811DF91CF911F910F910895109271
:1005D00067221092552110925421109258211092A6
:1005E000592110925A2110925B2110925C21109295
:1005F00056211092572180E0C3DE1092DE21109226
:10060000E1211092E2211092E3211092DF21109259
:10061000E02180E095DF882359F0909167229F5F69
:100620009093672290916722913011F49093662203
:1006300008950F931F93942F811129C08091E12178
:10064000E1E08111E0E061157105B1F4F0E0002412
:10065000F695E7950794F695E7950794FE2FE02D1C
:10066000AF014A515E4D09E113E020E430E061E062
:10067000892F0E94A8110BC0F0E0EE0FFF1FEE5172
:10068000FE4D608371831092DE2180E059DF1F915F
:100690000F91089580E04DCF08951F93CF93DF937E
:1006A00011E080917C22893009F010E060E070E078
:1006B0003FB7F8948091DF219091E0212091E121D2
:1006C0003FBF30E0F901EE0FFF1FEE51FE4D4081BC
:1006D00051818417950730F0809166228111E8CF0F
:1006E00090E020C0F9010024F695E7950794F6956F
:1006F000E7950794FE2FE02DE80FF91FEA51FE4D14
:100700002081EB01C22B01968093DF219093E021A1
:1007100080E016DF112321F07C2F662710E0C8CF80
:100720008C2F9D2FDF91CF911F91089580E0B5CF41
:1007300008955FB7F89420915821E22FF0E0EE0F72
:10074000FF1FE75AFE4D8081918141E0211140E079
:10075000E42FF0E0EE0FFF1FE75AFE4D20813181BC
:100760008034910589F46091552161110DC060912B
:100770005421611109C081E0809354214093582194
:1007800020E430E080E090E05FBF280F391F80E870
:1007900090E0821B930B0895CCDF21E0892B09F4B4
:1007A00020E0822F08951F93CF93DF93162FC72F3A
:1007B000D1E080917C22893009F0D0E080E0ECDF4C
:1007C000811107C0809166228111F8CF80E090E00E
:1007D0002BC06FB7F8942091582130E0F901EE0F4B
:1007E000FF1FE75AFE4D80819181AC014F5F5F4F43
:1007F00040835183F9010024F695E7950794F69517
:10080000E7950794FE2FE02D8E0F9F1FFC01E25A03
:10081000FE4D10836FBFDD2329F01C2FCC0FCC0BB6
:10082000D0E0CCCF81E090E0DF91CF911F9108958F
:10083000BC0180E0B8CF0895E0918222F09183223C
:100840000190F081E02D228133812E0F3F1FFC01AA
:100850004081E40FF11DE217F307A0F48181843099
:10086000A1F0861306C014C081818430A1F08617E0
:10087000A9F08081E80FF11DE217F307A8F380E0EB
:1008800090E0089580E090E0089580E090E0089581
:100890008E2F9F2F089580E090E008958E2F9F2F38
:1008A000089580910B248F770C94EB10089590910C
:1008B0008422992381F1E0918222F0918322019098
:1008C000F081E02D9481891740F5E0938022F09328
:1008D0008122228133812E0F3F1FE217F307F8F4A4
:1008E0009181943061F49281981309C09381961399
:1008F00006C0E0938022F093812281E008959081E8
:10090000E90FF11DE217F30758F3E0938022F0930B
:10091000812280E0089580E0089580E0089580E0DD
:100920000895FF920F931F93CF93DF93C82F60E03A
:10093000BEDFF82E882381F1A0918222B09183221C
:10094000EC2FF0E0EE0FFF1F12962D913C911397C4
:10095000E20FF31F00811181D8011696ED91FC91F1
:1009600017970995682F8C2FA2DFF82E8823A1F006
:10097000C0918022D091812265E0CE015DDFEC0143
:10098000009721F08A810E946912F6CFD801129651
:10099000ED91FC91139709958F2DDF91CF911F91C8
:1009A0000F91FF9008951F93CF93DF93182F7FDF50
:1009B000882341F1C0918022D091812265E0CE014F
:1009C0003BDFEC01009749F04C815D816B818A81AE
:1009D0000E9402118111F2CF15C0A0918222B09124
:1009E0008322812F90E0880F991F1296ED91FC9140
:1009F0001397E80FF91F0190F081E02D0190F0812D
:100A0000E02D0995DF91CF911F9108950C947810F6
:100A10000895CF93809184228823C1F0E0918222AF
:100A2000F09183220190F081E02D8481882371F080
:100A3000C0E08C2F76DFCF5FE0918222F09183229D
:100A40000190F081E02D8481C81798F310928422E0
:100A500081E090E08093852290938622CF91089543
:100A6000CF9380918422882341F1E0918222F091FA
:100A70008322A081B18114968C918823F1F0C0E08B
:100A80008C2F90E0880F991F0280F381E02DE80FF2
:100A9000F91F0190F081E02D0084F185E02D309761
:100AA00009F00995CF5FE0918222F0918322A08125
:100AB000B18114968C91C81718F3CF910895EF92D5
:100AC000FF920F931F93CF93DF93109213241092F2
:100AD00014241092152410921624109217241092A8
:100AE00018242091092422230CF072C280910F2433
:100AF00090911024009709F070C266C22F7109F01E
:100B000091C030910A24363089F0383009F47EC023
:100B1000311188C0029741F462E070E085E892E20A
:100B20000E94F91001E0D3C100E0D1C120910B2453
:100B300030910C24832F992782309105A1F01CF469
:100B4000019739F059C083309105E9F10F9769F1A8
:100B500053C08091182090911920DC016C9170E0B5
:100B60000E94F91038C0E0911820F0911920818975
:100B7000281708F043C0C9019927880F991F880FCB
:100B8000991FE0911A20F0911B20E80FF91F808136
:100B90009181FC01628173810E94F910E09111241E
:100BA000F091122482E0818316C080911C209091E4
:100BB0001D20009729F1DC0112966D917C9113970D
:100BC0000E94F91008C021111DC064E070E084E1AA
:100BD00090E20E94F91080910F24909110242091AE
:100BE0001324309114248217930770F480931324F4
:100BF0009093142401E06BC100E069C100E067C17B
:100C000000E065C100E063C101E061C1019741F40A
:100C100061E070E084E892E20E94F91001E057C1BF
:100C200000E055C1213009F040C030910A243A302B
:100C3000E1F50197A1F580918422882391F1C0917B
:100C40000D24D0910E24E0908222F0908322D701CF
:100C5000ED91FC918481C81730F560E08C2F27DE80
:100C6000082F882309F433C1CE019927880F991FD3
:100C7000D7011296ED91FC911397E80FF91F01909F
:100C8000F081E02D0680F781E02D099580937F2289
:100C900061E070E08FE792E20E94F91018C100E075
:100CA00016C100E014C100E012C1223009F011C1E8
:100CB00020910A24211106C1029789F480910D2404
:100CC0000E94631190E080937D2290937E2262E0E7
:100CD00070E08DE792E20E94F91001E0F8C000E0B8
:100CE000F6C02F7109F091C080910A24833009F475
:100CF000EBC018F48130B1F088C0853019F089302C
:100D000061F183C080910F2490911024892B41F4CC
:100D100081E594E0809315249093162401E0D7C0D8
:100D200000E0D5C080910F2490911024892B89F484
:100D300080910B2490910C24019769F48091852275
:100D4000909186228D7F809385229093862201E068
:100D5000BEC000E0BCC000E0BAC080910F249091FA
:100D60001024892B09F047C00E94EE10882309F453
:100D700044C020910B2430910C243327E09118209B
:100D8000F0911920818990E082179307C0F141DE2C
:100D900080910B2490910C2480938422882389F1E4
:100DA00099278150904C880F991F880F991FE091C7
:100DB0001A20F0911B20E80FF91FE0938222F09394
:100DC00083220190F081E02D84818823E1F0C0E04E
:100DD00060E08C2FE8DD082F882309F478C0CF5F0E
:100DE000E0918222F09183220190F081E02D8481B4
:100DF000C81770F36CC000E06AC000E068C000E093
:100E000066C001E064C001E062C0213009F5809154
:100E10000A248B30E9F480910F2490911024892BBF
:100E200099F480918422882389F0C0910D24D09177
:100E30000B248C2F76DD082F882309F448C06D2FF2
:100E40008C2FB1DD082F43C000E041C000E03FC05F
:100E5000223009F03EC080910A24813019F083309D
:100E6000B9F034C080910F2490911024892B61F443
:100E700080910B2490910C24892B41F480910D24B6
:100E80000E947E11082F23C000E021C000E01FC097
:100E900080910F2490911024892B81F480910B2450
:100EA00090910C24892B61F4CDE0D4E288810E94DA
:100EB000301288810E948612082F09C000E007C006
:100EC00000E005C000E003C000E001C000E0011147
:100ED00089C0809109248F718130C1F5809184226D
:100EE0008823A1F1C0910D24D0910E24009182227B
:100EF00010918322D801ED91FC918481C81730F5BF
:100F000060E08C2FD4DC882309F1CE019927880F6B
:100F1000991FD8011296ED91FC911397E80FF91FD4
:100F200000811181D8011696ED91FC9117970995D2
:100F3000682F8C2FBCDC882349F0D8011496ED91E2
:100F4000FC9115970995082F81114CC080910924B7
:100F50008F718230D9F580918422882389F1E091C4
:100F60008222F0918322A081B18114968C918823F2
:100F700049F110E0212F30E0220F331F0280F3816E
:100F8000E02DE20FF31FC081D181EE81FF81099531
:100F9000682F812F8CDC082F882321F1EC81FD81C3
:100FA0000995082F81111EC01F5FE0918222F091E8
:100FB0008322A081B18114968C911817D8F212C0A7
:100FC00000E010C000E00EC000E00CC000E00AC06D
:100FD000822F807609F07DCF84CE322F307609F0D3
:100FE00078CF8CCD802FDF91CF911F910F91FF9003
:100FF000EF9008951F920F920FB60F9211242F9326
:101000003F934F935F936F937F938F939F93AF9390
:10101000BF93EF93FF93E091B922F091BA223097FA
:1010200009F00995FF91EF91BF91AF919F918F9139
:101030007F916F915F914F913F912F910F900FBED4
:101040000F901F9018951F920F920FB60F921124B8
:101050002F933F934F935F936F937F938F939F93C0
:10106000AF93BF93EF93FF93E091B722F091B82233
:10107000309709F00995FF91EF91BF91AF919F9142
:101080008F917F916F915F914F913F912F910F9031
:101090000FBE0F901F9018951F920F920FB60F92D0
:1010A00011242F933F934F935F936F937F938F936D
:1010B0009F93AF93BF93EF93FF93E091B522F0918D
:1010C000B622309709F00995FF91EF91BF91AF914A
:1010D0009F918F917F916F915F914F913F912F9150
:1010E0000F900FBE0F901F9018951F920F920FB682
:1010F0000F9211242F933F934F935F936F937F939E
:101100008F939F93AF93BF93EF93FF93E091B3229D
:10111000F091B422309709F00995FF91EF91BF91BA
:10112000AF919F918F917F916F915F914F913F917F
:101130002F910F900FBE0F901F9018951F920F9236
:101140000FB60F9211242F933F934F935F936F939A
:101150007F938F939F93AF93BF93EF93FF93E09110
:10116000B122F091B222309709F00995FF91EF91E9
:10117000BF91AF919F918F917F916F915F914F91AF
:101180003F912F910F900FBE0F901F9018951F92B7
:101190000F920FB60F9211242F933F934F935F93AB
:1011A0006F937F938F939F93AF93BF93EF93FF932F
:1011B000E091AF22F091B022309709F00995FF91AC
:1011C000EF91BF91AF919F918F917F916F915F91BF
:1011D0004F913F912F910F900FBE0F901F90189538
:1011E0001F920F920FB60F9211242F933F934F939C
:1011F0005F936F937F938F939F93AF93BF93EF937F
:10120000FF93E091AD22F091AE22309709F009955D
:10121000FF91EF91BF91AF919F918F917F916F91CE
:101220005F914F913F912F910F900FBE0F901F90A4
:1012300018951F920F920FB60F9211242F933F9380
:101240004F935F936F937F938F939F93AF93BF93CE
:10125000EF93FF93E091AB22F091AC22309709F02D
:101260000995FF91EF91BF91AF919F918F917F91E0
:101270006F915F914F913F912F910F900FBE0F9003
:101280001F9018951F920F920FB60F9211242F9353
:101290003F934F935F936F937F938F939F93AF93FE
:1012A000BF93EF93FF93E091A922F091AA22309788
:1012B00009F00995FF91EF91BF91AF919F918F91A7
:1012C0007F916F915F914F913F912F910F900FBE42
:1012D0000F901F9018951F920F920FB60F92112426
:1012E0002F933F934F935F936F937F938F939F932E
:1012F000AF93BF93EF93FF93E091A722F091A822C1
:10130000309709F00995FF91EF91BF91AF919F91AF
:101310008F917F916F915F914F913F912F910F909E
:101320000FBE0F901F9018951F920F920FB60F923D
:1013300011242F933F934F935F936F937F938F93DA
:101340009F93AF93BF93EF93FF93E091A522F0910A
:10135000A622309709F00995FF91EF91BF91AF91C7
:101360009F918F917F916F915F914F913F912F91BD
:101370000F900FBE0F901F9018951F920F920FB6EF
:101380000F9211242F933F934F935F936F937F930B
:101390008F939F93AF93BF93EF93FF93E091A3221B
:1013A000F091A422309709F00995FF91EF91BF9138
:1013B000AF919F918F917F916F915F914F913F91ED
:1013C0002F910F900FBE0F901F9018951F920F92A4
:1013D0000FB60F9211242F933F934F935F936F9308
:1013E0007F938F939F93AF93BF93EF93FF93E0917E
:1013F000A122F091A222309709F00995FF91EF9177
:10140000BF91AF919F918F917F916F915F914F911C
:101410003F912F910F900FBE0F901F9018951F9224
:101420000F920FB60F9211242F933F934F935F9318
:101430006F937F938F939F93AF93BF93EF93FF939C
:10144000E0919F22F091A022309709F00995FF9139
:10145000EF91BF91AF919F918F917F916F915F912C
:101460004F913F912F910F900FBE0F901F901895A5
:101470001F920F920FB60F9211242F933F934F9309
:101480005F936F937F938F939F93AF93BF93EF93EC
:10149000FF93E0919D22F0919E22309709F00995EB
:1014A000FF91EF91BF91AF919F918F917F916F913C
:1014B0005F914F913F912F910F900FBE0F901F9012
:1014C00018951F920F920FB60F9211242F933F93EE
:1014D0004F935F936F937F938F939F93AF93BF933C
:1014E000EF93FF93E0919B22F0919C22309709F0BB
:1014F0000995FF91EF91BF91AF919F918F917F914E
:101500006F915F914F913F912F910F900FBE0F9070
:101510001F9018951F920F920FB60F9211242F93C0
:101520003F934F935F936F937F938F939F93AF936B
:10153000BF93EF93FF93E0919922F0919A22309715
:1015400009F00995FF91EF91BF91AF919F918F9114
:101550007F916F915F914F913F912F910F900FBEAF
:101560000F901F9018951F920F920FB60F92112493
:101570002F933F934F935F936F937F938F939F939B
:10158000AF93BF93EF93FF93E0919722F09198224E
:10159000309709F00995FF91EF91BF91AF919F911D
:1015A0008F917F916F915F914F913F912F910F900C
:1015B0000FBE0F901F9018951F920F920FB60F92AB
:1015C00011242F933F934F935F936F937F938F9348
:1015D0009F93AF93BF93EF93FF93E0919522F09188
:1015E0009622309709F00995FF91EF91BF91AF9145
:1015F0009F918F917F916F915F914F913F912F912B
:101600000F900FBE0F901F9018951F920F920FB65C
:101610000F9211242F933F934F935F936F937F9378
:101620008F939F93AF93BF93EF93FF93E091932298
:10163000F0919422309709F00995FF91EF91BF91B5
:10164000AF919F918F917F916F915F914F913F915A
:101650002F910F900FBE0F901F9018951F920F9211
:101660000FB60F9211242F933F934F935F936F9375
:101670007F938F939F93AF93BF93EF93FF93E091EB
:101680009122F0919222309709F00995FF91EF9104
:10169000BF91AF919F918F917F916F915F914F918A
:1016A0003F912F910F900FBE0F901F9018951F9292
:1016B0000F920FB60F9211242F933F934F935F9386
:1016C0006F937F938F939F93AF93BF93EF93FF930A
:1016D000E0918F22F0919022309709F00995FF91C7
:1016E000EF91BF91AF919F918F917F916F915F919A
:1016F0004F913F912F910F900FBE0F901F90189513
:101700001F920F920FB60F9211242F933F934F9376
:101710005F936F937F938F939F93AF93BF93EF9359
:10172000FF93E0918D22F0918E22309709F0099578
:10173000FF91EF91BF91AF919F918F917F916F91A9
:101740005F914F913F912F910F900FBE0F901F907F
:1017500018951F920F920FB60F9211242F933F935B
:101760004F935F936F937F938F939F93AF93BF93A9
:10177000EF93FF93E0918B22F0918C22309709F048
:101780000995FF91EF91BF91AF919F918F917F91BB
:101790006F915F914F913F912F910F900FBE0F90DE
:1017A0001F9018951F920F920FB60F9211242F932E
:1017B0003F934F935F936F937F938F939F93AF93D9
:1017C000BF93EF93FF93E0918922F0918A223097A3
:1017D00009F00995FF91EF91BF91AF919F918F9182
:1017E0007F916F915F914F913F912F910F900FBE1D
:1017F0000F901F9018951F920F920FB60F92112401
:101800002F933F934F935F936F937F938F939F9308
:10181000AF93BF93EF93FF93E0918722F0918822DB
:10182000309709F00995FF91EF91BF91AF919F918A
:101830008F917F916F915F914F913F912F910F9079
:101840000FBE0F901F901895CF93CFB7F894282F05
:10185000392F211588E0380749F461E083E00E94C0
:10186000AF1464E083E00E94AF1435C0203488E0F8
:10187000380749F462E083E00E94AF1464E083E03B
:101880000E94AF1428C0211589E0380749F461E0AF
:1018900084E00E94AF1464E084E00E94AF141BC097
:1018A000203489E0380749F462E084E00E94AF14F4
:1018B00064E084E00E94AF140EC021153A4049F460
:1018C00061E085E00E94AF1464E085E00E94AF14FF
:1018D00002C0CFBF09C08FB7F894EAE1F4E290816B
:1018E0009F5F90838FBFCFBFCF910895CF93DF933A
:1018F000E091BB22F091BC22848183FF08C0886004
:10190000848383E0838386EF8093C52289C0982FE8
:10191000947131F083E083838FEF8093C52280C080
:1019200086FF45C0A091BD22B091BE228091BF220A
:101930009091C02214962D913C9115978217930790
:101940006CF49C012F5F3F4F2093BF223093C02245
:10195000A80FB91F11968C91878362C08091C12214
:101960009091C22218962D913C9119978217930756
:10197000C8F42091C322222321F0868181608683CE
:101980004FC016962D913C911797AC014F5F5F4F5A
:101990004093C1225093C222D901A80FB91F8C9144
:1019A00087833EC083E083831092C52239C0882399
:1019B000A4F5A091BD22B091BE228091C122909148
:1019C000C22218962D913C91199782179307F8F42B
:1019D00016964D915C9117979C012F5F3F4F209376
:1019E000C1223093C2226781EA01C80FD91F6883E0
:1019F00018968D919C9119972817390718F482E051
:101A000083830EC087E083831092C52209C083E0E0
:101A1000838389EF8093C52203C08BEF8093C52217
:101A2000DF91CF9108951F920F920FB60F9211245C
:101A30002F933F934F935F936F937F938F939F93D6
:101A4000AF93BF93EF93FF9351DFFF91EF91BF915E
:101A5000AF919F918F917F916F915F914F913F9146
:101A60002F910F900FBE0F901F9018951F920F92FD
:101A70000FB60F9211242F933F934F935F936F9361
:101A80007F938F939F93AF93BF93EF93FF932EDF3B
:101A9000FF91EF91BF91AF919F918F917F916F9146
:101AA0005F914F913F912F910F900FBE0F901F901C
:101AB0001895009709F453C06115710509F451C0D8
:101AC000FB0132852091C42202C031114CC021118A
:101AD000FCCF2FB7F89431E03093C42230E8309334
:101AE000C5222FBF8093BB229093BC226093BD225E
:101AF0007093BE221092BF221092C0221092C12277
:101B00001092C2224093C322FB012081522F550F15
:101B100024813581232B11F4411103C0FC0156832C
:101B200003C05160FC015683E5ECF2E2808180380D
:101B3000E9F3E091BB22F091BC2284818370813073
:101B400049F0ABEBB2E2ED91FC9111978481837087
:101B50008130C9F78091C5221092C422089588EF80
:101B6000089588EF089586EF0895811118C0909127
:101B7000F023992389F09FB7F894EAE1F4E22081F9
:101B8000215020839FBF08C09FB7F894EAE1F4E298
:101B900020812F5F20839FBF8093F0230895909131
:101BA000F023992389F3F8CF0F93E8ECF4E08081D8
:101BB0008F7D808380818F7D8083E4ECF3E202E07F
:101BC00005931092C6231092C72300E2069300E407
:101BD0000693ECEBF3E200E2069300E40693109226
:101BE0001524109216241092172410921824109283
:101BF0001324109214241092AF230F9108950F9381
:101C000085E08093AF23E5ECF3E204E00593EDEB90
:101C1000F3E204E005930F9108950F9383E080931E
:101C2000AF231092C6231092C723E4ECF3E202E044
:101C300006930F910895E0911524F09116243097A2
:101C400009F0099508950F93CF93DF938091AF2307
:101C5000833019F4F0DFA8DF60C08091AB2390914E
:101C6000AC23C0911324D0911424C81BD90B71F557
:101C70002091AD233091AE23820F931F8093AD232B
:101C80009093AE2320910F24309110248217930754
:101C900021F08091C622882341F084E08093AF2315
:101CA000ECEBF3E202E0069338C0E0911724F091E8
:101CB0001824309799F00995882381F01092AB236E
:101CC0001092AC23C0911324D0911424C034D105B8
:101CD00028F01092C622C0E4D0E003C081E08093D7
:101CE000C622C093C623D093C7238091AB23909183
:101CF000AC232091112430911224280F391F2093F6
:101D0000C8233093C923C80FD91FC093AB23D093E6
:101D1000AC23E4ECF3E202E00693DF91CF910F9164
:101D20000895FC018181877090E0FC013197E730D4
:101D3000F10520F4E250FF4F0C94122488E090E06B
:101D4000089580E290E0089580E490E0089580E8AE
:101D500090E0089580E091E0089580E092E0089599
:101D60008FEF93E0089580E190E00895282F2F7081
:101D700030E0220F331F992787FD90958827990F10
:101D8000881F9927820F931F02979C01220F331FF0
:101D9000220F331F220F331F820F931F895B9C4D2D
:101DA00008950F93CF938091CC0480FF63C081E0AE
:101DB0008093CC04ECEBF3E200E80693E4ECF3E26E
:101DC00000E806938093CA04ECEBF3E200E106938B
:101DD0008091AF23882329F08350823008F42BDFD1
:101DE000E3DE8091BE239091BF23089709F044C0A1
:101DF00088E0EBE6F3E2A9E0B4E201900D928A9567
:101E0000E1F7E8ECF4E08081806280838081806289
:101E100080830E945F05C82F811103C0F0DEC1E0FE
:101E20002CC08091092488236CF41092AD23109269
:101E3000AE231092AB231092AC2382E08093AF23A9
:101E400002DF1BC020910F2430911024232B11F4AA
:101E5000E4DE13C01092AD231092AE231092AB2398
:101E60001092AC2381E08093AF23ECEBF3E202E02D
:101E7000069303C0C0E001C0C1E08C2FCF910F9149
:101E80000895BF92CF92DF92EF92FF920F931F932C
:101E9000CF93DF93B82E6ADFEC011B2D111F1127A2
:101EA000111F8B2D8F70E82EF12CEE0CFF1CE10E14
:101EB000F11CC701880F991F880F991F880F991F60
:101EC0009C0124543C4D7901C9012BDF6C01112385
:101ED00009F45BC0D70116962D913C9117978D811F
:101EE0009E81280F391F2D833E838B819C8128176B
:101EF0003907C9F1FC01E21BF30B9F012115F4E046
:101F00003F0740F02FEF33E0C901B6010E94AD2337
:101F1000281B390B888181FF0AC0C901B6010E94C4
:101F2000AD2341E0892B09F040E0942F01C090E0FF
:101F3000888190FB81F98883D70116961D921C92A7
:101F4000179712962D933C93139729813A818D818F
:101F50009E81820F931F14968D939C931597F70182
:101F600002E0069398C0888181FF87C08D7F8883B7
:101F7000D70116961D921C92179712961D921C92CD
:101F80001397F70102E0069386C0D70112960D91D0
:101F90001C911397888182FF15C0E981FA812D81F8
:101FA0003E818B819C81B6010E94AD23B0E4BB9E33
:101FB000B001112469577D4DAC01CF01820F931FF1
:101FC0000E9478242D813E81200F311F2D833E8376
:101FD000EB81FC81E217F30710F4ED83FE83D70158
:101FE00016968D919C9117978017910709F045C01F
:101FF0008D819E81E817F90709F43FC0E81BF90BB2
:10200000E115B4E0FB0748F0EFEFF3E0CF01B601D4
:102010000E94AD23E81BF90B06C0CF01B6010E9458
:10202000AD23E81BF90BD70112961D921C92139752
:10203000EC15FD0578F4888184608883B0E4BB9E4C
:10204000C001112489579D4DF70184839583C68271
:10205000D7820FC029813A818D819E81820F931F83
:10206000D70114968D939C9315971696ED93FC9338
:102070001797F70102E006930EC0888180FF0BC01E
:102080008E7F8883EF81F885309729F06D817E817E
:102090004B2D80E00995DF91CF911F910F91FF901B
:1020A000EF90DF90CF90BF900895CF93CFB7F89483
:1020B00081E05BDDEAECF4E080E4808380E2808311
:1020C000E1ECF4E0808181608083A9ECB4E08C9144
:1020D00082608C93E8ECF4E08081806480838C9152
:1020E00081608C93808180688083CFBFCF91089579
:1020F000CF93DF93C0E6D0E0188280E33CD4E0ECDD
:10210000F4E080818064808381E08883CFB7F89495
:102110001092BD231092C5231092CD231092D52387
:102120001092DD231092E523E7E4F3E280818E7FB5
:102130008083E0E5F3E280818E7F8083E9E5F3E24E
:1021400080818E7F8083E2E6F3E280818E7F8083D0
:102150006AE170E082E045D48F3F19F08093FA0481
:1021600003C08FE18093FA046BE170E082E039D420
:102170008F3F19F08093FB0403C08FE18093FB0431
:10218000E0ECF4E0808182608083808180688083DD
:102190008081806180838CEB93E28683978380814A
:1021A000806280838FEF8093C504E8ECF4E0808147
:1021B000816080831092F0238FB7F894EEE1F4E20F
:1021C00090819F5F90838FBF70DFCFBFDF91CF91F2
:1021D000089580E008958093C30408958091C30416
:1021E00008958091EC239091ED23089580E090E094
:1021F0000895809311249093122460931324709374
:1022000014240895E82FEF70F0E0EE0FFF1F9927D8
:1022100087FD90958827990F881F9927E80FF91F48
:10222000EE0FFF1FEE0FFF1FEE0FFF1FE454FC4DDC
:102230008181807C09F043C06370613029F010F423
:1022400080E403C080E801C080EC40385105E1F033
:1022500050F440325105A1F04034510599F040311D
:10226000510561F419C0411592E0590789F04F3FBB
:1022700093E0590779F04115514041F020E00DC03D
:1022800022E00BC023E009C024E007C025E005C020
:1022900026E003C027E001C021E0118296E0908390
:1022A000822B81838181807C803C21F481818770B5
:1022B000873039F081818062818381E0089580E0F8
:1022C000089581E00895E82FEF70F0E0EE0FFF1F12
:1022D000992787FD90958827990F881F9927E80FE0
:1022E000F91FEE0FFF1FEE0FFF1FEE0FFF1FE4544D
:1022F000FC4D818182FB882780F90895E82FEF70DB
:10230000F0E0EE0FFF1F282F332727FD30952227FF
:10231000330F221F3327E20FF31FEE0FFF1FEE0FC5
:10232000FF1FEE0FFF1FE454FC4D918192FF0EC082
:1023300091819B7F91831ADDFC01808180FF06C023
:102340008E7F80830780F085E02D099581E00895D8
:102350007F928F929F92AF92BF92CF92DF92EF9235
:10236000FF920F931F93CF93DF93982E862E5A01DF
:102370006901FCDC7C01792C771C7724771CC92D42
:10238000CF70D0E0CC0FDD1FC70DD11DCC0FDD1FEE
:10239000CC0FDD1FCC0FDD1FC454DC4D8981807C48
:1023A00009F44CC08981807C803C19F0898182FDD0
:1023B00047C08FB7F894F701908190FF03C08FBF9B
:1023C000712C3FC0F7019081916090838FBFF7011E
:1023D000A182B282C382D4821582168207831087BB
:1023E000811006C091E0C114D10419F090E001C041
:1023F00091E0F701808190FB81F98B7F80837720CA
:1024000019F01E821F8215C08981807C803C69F48E
:10241000CE0187DCBC01C6010E94AD23892B29F0C7
:10242000F70180818E7F80830CC01A821B821E82FE
:102430001F82892D26DD7724739403C0712C01C07F
:10244000712C872DDF91CF911F910F91FF90EF900D
:10245000DF90CF90BF90AF909F908F907F90089526
:10246000FF920F931F93CF93DF93182FF82EFF1C2B
:10247000FF24FF1CC82FCF70D0E0CC0FDD1FCF0D85
:10248000D11DCC0FDD1FCC0FDD1FCC0FDD1FC454C1
:10249000DC4D6CDCDC01FE0102E005938C9180FFD9
:1024A00012C08E7F8C931796ED91FC911897309700
:1024B00051F0FF2019F06E817F8102C06A817B811B
:1024C000412F81E00995DF91CF911F910F91FF90EE
:1024D0000895CF93C82FC4DFEC2FEF70F0E0EE0F1C
:1024E000FF1F8C2F992787FD90958827990F881FAC
:1024F0009927E80FF91FEE0FFF1FEE0FFF1FEE0FDA
:10250000FF1FE454FC4D1182CF9108950F93E82FE3
:10251000EF70F0E0EE0FFF1F282F332727FD3095D7
:102520002227330F221F3327E20FF31FEE0FFF1F67
:10253000EE0FFF1FEE0FFF1FE454FC4D91819460DE
:10254000918301E006938CDF81E00F9108951F9243
:102550000F920FB60F9211240F932F933F934F9327
:102560005F936F937F938F939F93AF93BF93EF93FB
:10257000FF938091CB04882334F480E88093CA04CD
:102580000E94300588C08091CB0482FF20C084E087
:102590008093CA048091C42386FF7DC08091CC04BF
:1025A00081FD79C0FEDB811176C08091AF2381303F
:1025B00011F433DB70C0843009F06DC0E5ECF3E258
:1025C00004E00593EDEBF3E204E0059364C0809131
:1025D000CB0481FF5BC082E08093CA048091BC235E
:1025E00086FF59C08091CC0481FD55C0DADB811192
:1025F00052C08091AF23823041F484E08093AF23B6
:10260000ECEBF3E202E0069346C0833009F043C0EE
:10261000E5ECF3E204E00593EDEBF3E204E005936F
:102620003AC080E18093CA0481E01ADF81E818DFB4
:102630000E9409051092C304EDEBF3E2108296E0CC
:102640009093BC2383E48083E5ECF3E210829093C3
:10265000C42380838BE693E28093C0239093C123AD
:10266000A3DA19C08091CB0486FF06C080E4809372
:10267000CA0480E07ADA0FC08091CB0485FF0BC0DA
:1026800080E28093CA0481E070DA05C08091CB04B7
:1026900084FFE8CFC6CFFF91EF91BF91AF919F919B
:1026A0008F917F916F915F914F913F912F910F91FA
:1026B0000F900FBE0F901F9018951F920F920FB69C
:1026C0000F9211240F931F932F933F934F935F9378
:1026D0006F937F938F939F93AF93BF93CF93DF932A
:1026E000EF93FF938091CC0481FD03C05ADB8111ED
:1026F000B9C082E08093CC048091C5048195880F95
:10270000ECEBF3E2E81BF109208131812C5B3342D1
:10271000369527953695279536952795822F869558
:1027200020FF02C090E801C090E0890FE82FEF7011
:10273000F0E0EE0FFF1F282F332727FD30952227CB
:10274000330F221F3327E20FF31FEE0FFF1FEE0F91
:10275000FF1FEE0FFF1FE454FC4D908195FF82C0D8
:1027600000E20693811179C08091AF23843019F47F
:1027700062DA1ADA77C0C091BE23D091BF2380916C
:102780001324909114240091AB231091AC23980151
:102790002C0F3D1F8217930718F4EC01C01BD10BBF
:1027A0008091112490911224AE016BE673E2800FA8
:1027B000911F0E9478240C0F1D1F0093AB231093D0
:1027C000AC23C034D10569F48091AD239091AE2340
:1027D000800F911F20910F243091102482179307AE
:1027E00088F00093132410931424E0911724F0919F
:1027F0001824309729F00995811102C000DA32C0FF
:102800000CDA30C080911324909114240817190712
:10281000F9F4E0911724F0911824309711F4EFD9CE
:1028200021C00995811102C0EAD91CC02091AD23B5
:102830003091AE238091AB239091AC23820F931FF4
:102840008093AD239093AE231092AB231092AC23D0
:10285000ECEBF3E202E0069305C0803811F4F3D903
:1028600001C00FDBFF91EF91DF91CF91BF91AF914D
:102870009F918F917F916F915F914F913F912F9198
:102880001F910F910F900FBE0F901F901895CF932F
:10289000DF9300D000D0CDB7DEB78FEF809370000C
:1028A0008093710080937200809373008093740012
:1028B00080937500809376006CE170E082E091D0A7
:1028C0008A836DE170E082E08CD0898389819A816E
:1028D000019621F480E493E289839A8389819A8125
:1028E0008B839C83E0E6F0E082838C8183838FB7C7
:1028F000F894E0E5F0E09081926090838FBF818151
:1029000081FFFDCF8FB7F894A0E5B0E016969C91BB
:102910001697997F16969C931697E0E6F0E090E85C
:1029200095839BEB968316969C91169794601696CA
:102930009C939081916090838FBF61E080E490E0F0
:102940005AD08FB7F894E0E5F0E090819E7F9083B5
:102950008FBF2496CDBFDEBFDF91CF9108959FB783
:10296000F894E82FF0E0E059FF4F609580816823EC
:1029700060839FBF0895863011F468E101C060E074
:10298000E0E5F0E0818181FD24C08FB7F89490816B
:10299000926090838FBF818181FFFDCF8FB7F894C4
:1029A000A0E5B0E016969C911697997F16969C9399
:1029B0001697E0E6F0E090E895839BEB96831696F9
:1029C0009C911697946016969C9390819160908349
:1029D0008FBF636084E490E00ED060E480E0BFCFFE
:1029E00008954091CA01E62FF72F8093CA01849180
:1029F0004093CA0108951BBEFC0128ED24BF6083EB
:102A00000895CF92DF92EF92FF92CF93DF93EC0184
:102A10006B01E12CF12C60E07CE68CED92E0A701EB
:102A200096010E94D423CA01B9012FEF3FEF40E085
:102A300050E00E94D4232115310529F481E08C83D4
:102A400021E030E02DC02230310528F482E08C8373
:102A500022E030E025C02430310528F483E08C8367
:102A600024E030E01DC02830310528F484E08C8358
:102A700028E030E015C02034310528F485E08C834F
:102A800020E430E00DC02F3F310509F028F486E046
:102A90008C8320E031E004C087E08C8320E034E0C8
:102AA00040E050E060E07CE68CED92E00E94D423B0
:102AB000CA01B901A70196010E94D4232D833E8348
:102AC0002436310518F41C821D821E82DF91CF91BD
:102AD000FF90EF90DF90CF9008950F931F93CF93C7
:102AE000DF93EC0189016230B9F128F4662351F0DB
:102AF0006130E9F06FC0633009F443C0643009F419
:102B000055C068C080E098E088839983E0E4F6E0EF
:102B1000508121E030E08FEF840FB90102C0660FD1
:102B2000771F8A95E2F7CB01852B808353C080E421
:102B300098E088839983E0E4F6E0508121E030E07A
:102B400083E0840FB90102C0660F771F8A95E2F710
:102B5000CB01852B80833EC080E099E088839983F8
:102B6000E0E6F6E0508121E030E08FEF840FB9011C
:102B700002C0660F771F8A95E2F7CB01852B808311
:102B800029C080E499E088839983E0E6F6E05081EB
:102B900021E030E083E0840FB90102C0660F771FA7
:102BA0008A95E2F7CB01852B808314C080E09AE000
:102BB00088839983E0E8F6E0508121E030E08FEFF0
:102BC000840FB90102C0660F771F8A95E2F7CB0127
:102BD000852B80834A83423061F018F4413031F014
:102BE00010C0433049F0443051F00BC080E18B837A
:102BF00008C080E28B8305C080E48B8302C080E83C
:102C00008B83888199810E94240CE881F9818181DC
:102C1000887F836081831D821E821C82E881F98106
:102C20008081807F8083B801CE01EBDEDF91CF9180
:102C30001F910F910895CF93DF93EC01AD81BE8179
:102C4000262F30E00E94182424E630E040E050E0D7
:102C50000E94D4238A81E881F981E6FD17C0823081
:102C600061F018F4813031F01BC0833049F08430BA
:102C700051F016C020AF31AF13C022AF33AF10C038
:102C800024AF35AF0DC026AF37AF0AC0813019F081
:102C9000823021F005C020AF31AF02C022AF33AF88
:102CA0008D819E81E881F98186A397A38B81E8813C
:102CB000F981E6FD04C09181892B818304C0918153
:102CC0008073892B8183E881F9818081807F9C8159
:102CD000892B8083DF91CF9108951092CB2410929D
:102CE000CC24109245241092462410923C24109239
:102CF0003D24109220241092212410922C24109212
:102D00002D241092CF241092D024109232241092AD
:102D1000332410922E2410922F24109247241092C4
:102D2000482408958F929F92AF92BF92CF92DF92E4
:102D3000EF92FF920F931F93CF93DF930091CC24D8
:102D4000053008F483C18FEF800F803208F053C044
:102D5000C02ED12C1C141D040CF07BC1EBE4F4E25A
:102D60008BEA94E27601AF01970125553B4D7191B5
:102D70007B3078F0EC01DC01A054B1090C910B30F0
:102D800040F090961C911B3020F098806AE0691505
:102D900028F001968217930751F75EC1772309F453
:102DA0005EC1002309F45EC1112309F45EC19920BC
:102DB00009F45EC1C6010197992334F1F701E55B7F
:102DC000FB4DDC01A559BB4D319760816B3070F034
:102DD0008C918B3058F0EF01C05CDF4F98819B30B5
:102DE00028F0A09688802AE02815B8F01197E417FB
:102DF000F50751F70EC0812C90E080E060E0912C47
:102E000010E000E070E009C0812C90E080E060E01C
:102E100004C0812C90E080E060E0A72EB12CC02E91
:102E2000D12CC12FD0E0292D30E070E0482F50E0A8
:102E3000E92EF12C082D10E0FB01E41BF50B0F2E01
:102E4000F4E69F2EF02D9E9EC0019F9E900D1124B2
:102E5000640F751F0E94C123FB01A5014C195D0978
:102E6000949EC001959E900D1124B5016C0D7D1DA1
:102E70000E94C123E61BF70BA701401B510B949E38
:102E8000C001959E900D1124B701600F711F0E9423
:102E9000C1238B01AE01421B530B949EC001959E32
:102EA000900D1124BE01620F731F0E94C123C8013F
:102EB000861B970BBC0120914524309146242E0F90
:102EC0003F1F209345243093462480913C249091C9
:102ED0003D24860F971F80933C2490933D242233FA
:102EE00031053CF021E030E0209320243093212470
:102EF0000EC02F3C3F4F3CF42FEF3FEF2093202498
:102F00003093212404C01092202410922124823373
:102F100091053CF081E090E080932C2490932D2447
:102F20000EC08F3C9F4F3CF48FEF9FEF80932C247B
:102F300090932D2404C010922C2410922D24809163
:102F4000202490912124892B09F04FC080912C24BA
:102F500090912D24892B09F048C0CF014396879783
:102F600008F089C0CB014396879708F087C0309757
:102F700069F46115710551F48091CF249091D024AA
:102F800001968093CF249093D02409C0809132245D
:102F9000909133240196809332249093332480912E
:102FA000CF249091D0240A970CF46BC080913224E6
:102FB0009091332402970CF467C0EF2B51F4672BE8
:102FC00009F065C081E090E080932E2490932F2437
:102FD0006CC0672B09F45EC082E090E080932E24E1
:102FE00090932F2481E090E060C0CF0143968797B3
:102FF00008F053C0CB014396879708F051C0EF2BE0
:1030000059F4672B49F48091CF249091D0240196F4
:103010008093CF249093D0248091CF249091D0247A
:103020000A970CF440C01092202410922124109290
:103030002C2410922D241092452410924624109294
:103040003C2410923D2480E090E02FC080E090E08E
:103050002CC080E090E029C080E090E026C080E0B5
:1030600090E023C080E090E020C080E090E01DC0B0
:1030700080E090E01AC080E090E017C080E090E02F
:1030800014C080E090E011C080E090E00EC081E0CC
:1030900090E00BC081E090E008C080E090E005C0C7
:1030A00080E090E002C080E090E0DF91CF911F913E
:1030B0000F91FF90EF90DF90CF90BF90AF909F90D7
:1030C0008F90089580912E2490912F248130910526
:1030D00049F485E090E0809347249093482481E070
:1030E00090E00895029749F486E090E080934724A9
:1030F0009093482481E090E008958091202490915D
:1031000021248F3F2FEF920779F420912C243091C6
:103110002D24232BC9F583E090E0809347249093DE
:10312000482481E090E008958130910581F4209158
:103130002C2430912D24232B09F058C084E090E0FA
:10314000809347249093482481E090E0089500976D
:10315000D9F420912C2430912D242130310549F4CB
:1031600082E090E0809347249093482481E090E0AF
:1031700008952F3F3F4F09F068C081E090E08093B1
:1031800047249093482408958F3F2FEF920771F5BD
:1031900080912C2490912D24019709F05AC0209100
:1031A00045243091462433231CF43195219531096F
:1031B00080913C2490913D2499231CF49195819514
:1031C0009109821793074CF483E090E080934724A1
:1031D0009093482481E090E0089582E090E080930D
:1031E00047249093482481E090E008958130910530
:1031F00061F580912C2490912D24019609F057C0FF
:10320000209145243091462433231CF43195219597
:10321000310980913C2490913D2499231CF491958F
:1032200081959109821793074CF484E090E0809394
:1032300047249093482481E090E0089581E090E055
:10324000809347249093482408958F3F2FEF92074F
:1032500061F580912C2490912D24019609F054C0A1
:10326000209145243091462433231CF43195219537
:10327000310980913C2490913D2499231CF491952F
:1032800081959109821793074CF483E090E0809335
:1032900047249093482481E090E0089581E090E0F5
:1032A00080934724909348240895019781F5809155
:1032B0002C2490912D24019769F52091452430917B
:1032C000462433231CF431952195310980913C2407
:1032D00090913D2499231CF4919581959109821731
:1032E00093074CF484E090E0809347249093482423
:1032F00081E090E0089582E090E0809347249093ED
:10330000482481E090E0089580E090E0089580E016
:1033100090E0089580E090E00895CF93DF93CDB7DB
:10332000DEB72B97CDBFDEBFFE0131969BE0DF01FC
:103330001D929A95E9F799E399838A8381E090E059
:103340008D839E836F83788789879A8741E0BF0149
:1033500080EA94E00E94590D21E030E0882311F0CA
:1033600020E030E0C9012B96CDBFDEBFDF91CF91C9
:103370000895CF93DF931F92CDB7DEB7BE016F5F85
:103380007F4F80E8CADF892B11F0898101C08FEF60
:103390000F90DF91CF910895CF93DF931F92CDB718
:1033A000DEB7BE016F5F7F4F8FEAB7DF892B39F041
:1033B000298181E090E020FD04C080E002C08FEF11
:1033C00090E00F90DF91CF9108950F931F93CF93CB
:1033D000DF93CDB7DEB72B97CDBFDEBF042F152F00
:1033E000FE0131969BE0DF011D929A95E9F799E382
:1033F00099838A8321E030E02D833E836F83788731
:1034000049875A8741E0BF0180EA94E00E94590D44
:10341000811103C0802F912F02C08FEF9FEF2B9659
:10342000CDBFDEBFDF91CF911F910F9108952F92F5
:103430003F925F926F927F928F929F92AF92BF92D4
:10344000CF92DF92EF92FF920F931F93CF93DF9370
:10345000CDB7DEB7C258D109CDBFDEBF19829CDF20
:10346000009709F4B0C085DF817409F4A4C08E010F
:103470000E571F4F6894662467F80F2EF9EA7F2EC7
:10348000F02D0F2EF3E08F2EF02D912CA02EB12ECB
:103490000F2EFBECCF2EF4E2DF2EF02D0F2EFCECE6
:1034A000EF2EF4E2FF2EF02D862D972DA82DB92DAD
:1034B0000197A109B1090097A105B105C9F76A2DC6
:1034C0007B2D8FEA2ADF892B09F478C0D8018C91F3
:1034D00080FF5DC0BE016F5F7F4F8EEA1EDF892BCC
:1034E00009F46FC049814423F9F250E0440F551F9D
:1034F000440F551FBE016E5F7F4F8CEF66DF843037
:1035000098F2992718161906CCF5F6016081D701B3
:103510005C90FE0135960197AC01569547955695FE
:10352000479571E0760F740FA62FB0E0CD01855B53
:103530009B4D1C01CF010397DC018C91D1018C9331
:10354000CF010297DC018C91D10190968C93C1013F
:10355000805C9F4F9F0121503109D9012C91DC01E2
:103560002C93808190968C936F5F34966713DCCF99
:103570005394F6017083450DD7014C93D3DB892B0F
:1035800009F0A0DDF6011082D7011C928DCF80E8F2
:1035900099EAA3E0B0E00197A109B1090097A1055C
:1035A000B105C9F78FDD009147241091482495DBC0
:1035B000802F912F08C080E090E005C08FEF90E051
:1035C00002C08FEF90E0CE57DF4FCDBFDEBFDF915F
:1035D000CF911F910F91FF90EF90DF90CF90BF9010
:1035E000AF909F908F907F906F905F903F902F90C3
:1035F0000895E82FE695E695E69540E2E49FF00110
:103600001124FA5F877021E030E0A90102C0440F65
:10361000551F8A95E2F741830895E82FE695E695D0
:10362000E69540E2E49FF0011124FA5F672B59F020
:10363000877021E030E0A90102C0440F551F8A9530
:10364000E2F745830895877021E030E0A90102C0C8
:10365000440F551F8A95E2F746830895E82FE695B3
:10366000E695E69560E2E69FF0011124FA5F408559
:10367000877021E030E0B90102C0660F771F8A959C
:10368000E2F7242F262381E090E011F480E090E01F
:1036900008959C012150310923303105A8F02350B1
:1036A00031092230310598F022503109243031059A
:1036B00088F0245031092230310578F00C970497B6
:1036C00078F484E090E0089580E090E0089581E04F
:1036D00090E0089582E090E0089583E090E00895FE
:1036E00081E090E008958130910541F19C012D7FAA
:1036F0002430310531F18A30910531F18C3091055A
:1037000031F18230910531F12530310531F18B30C5
:10371000910531F18D30910531F18330910531F111
:103720008830910531F18E30910531F18930910564
:1037300031F10F9739F584E090E0089581E090E051
:10374000089581E090E0089581E090E0089581E09F
:1037500090E0089582E090E0089582E090E008957E
:1037600082E090E0089582E090E0089583E090E0A8
:10377000089583E090E0089583E090E0089584E068
:1037800090E0089581E090E008951F93CF93DF9338
:10379000EA0180933024609322242BDF809122243D
:1037A00028DFCE01A0DF182FCE0173DF20E137E242
:1037B000412F682F85E394E290D960E085E394E29D
:1037C0003ADADF91CF911F910895CF93DF93EC0107
:1037D000992384F461E070E0809130241EDF60E082
:1037E00070E08091222419DF6C2F619585E394E2CB
:1037F00022DA0EC060E070E0809130240EDF61E0DC
:1038000070E08091222409DF6C2F85E394E213DAC3
:10381000DF91CF9108953BD803D07CD2A7C2089501
:10382000E0E0F6E081E0818382E0818384E08183CF
:1038300088E0818308958130910531F082309105CF
:1038400069F0892B79F405C081E0E0E0F6E085833A
:10385000089581E0E0E0F6E08683089581E0E0E00D
:10386000F6E0878308958130910531F0823091052B
:1038700069F0892B79F405C082E0E0E0F6E0858309
:10388000089582E0E0E0F6E08683089582E0E0E0DB
:10389000F6E0878308958130910531F082309105FB
:1038A00069F0892B79F405C084E0E0E0F6E08583D7
:1038B000089584E0E0E0F6E08683089584E0E0E0A7
:1038C000F6E0878308958130910531F082309105CB
:1038D00069F0892B79F405C088E0E0E0F6E08583A3
:1038E000089588E0E0E0F6E08683089588E0E0E06F
:1038F000F6E087830895AF92BF92CF92DF92EF9266
:10390000FF920F931F93CF93DF9300D0CDB7DEB715
:1039100082E390E089839A8389819A818436910534
:103920000CF0EBC181E090E086DFE981FA819F2F06
:10393000990F990BA12C0F2EFCE6BF2EF02D0F2E08
:10394000FCEDCF2EF02D6894DD24D1F8E12CF12C84
:1039500000E010E02E2F3F2F492F592F692F792F8C
:10396000892F75D729513C4F4F4F5F4F6F4F7F4F76
:103970008F4F9F4FC8D520E030E84BEB55E4B3D4D0
:103980001FD5F22FE32F8F2F9E2FA42FB52F019736
:10399000A109B1090097A105B105C9F781E090E03F
:1039A00062DFE981FA819F2F990F990BA12C0F2ECD
:1039B000FCE6BF2EF02D0F2EFCEDCF2EF02D6894DF
:1039C000DD24D1F8E12CF12C00E010E02E2F3F2F68
:1039D000492F592F692F792F892F39D729513C4FDA
:1039E0004F4F5F4F6F4F7F4F8F4F9F4F8CD520E0D2
:1039F00030E84BEB55E477D4E3D4F22FE32F8F2F4D
:103A00009E2FA42FB52F0197A109B1090097A105F9
:103A1000B105C9F781E090E03EDFE981FA819F2F8F
:103A2000990F990BA12C0F2EFCE6BF2EF02D0F2E17
:103A3000FCEDCF2EF02D6894DD24D1F8E12CF12C93
:103A400000E010E02E2F3F2F492F592F692F792F9B
:103A5000892FFDD629513C4F4F4F5F4F6F4F7F4FFE
:103A60008F4F9F4F50D520E030E84BEB55E43BD4CF
:103A7000A7D4F22FE32F8F2F9E2FA42FB52F0197BE
:103A8000A109B1090097A105B105C9F781E090E04E
:103A90001ADFE981FA819F2F990F990BA12C0F2E24
:103AA000FCE6BF2EF02D0F2EFCEDCF2EF02D6894EE
:103AB000DD24D1F8E12CF12C00E010E02E2F3F2F77
:103AC000492F592F692F792F892FC1D629513C4F62
:103AD0004F4F5F4F6F4F7F4F8F4F9F4F14D520E059
:103AE00030E84BEB55E4FFD36BD4F22FE32F8F2F4D
:103AF0009E2FA42FB52F0197A109B1090097A10509
:103B0000B105C9F780E090E096DEE981FA819F2F48
:103B1000990F990BA12C0F2EFCE6BF2EF02D0F2E26
:103B2000FCEDCF2EF02D6894DD24D1F8E12CF12CA2
:103B300000E010E02E2F3F2F492F592F692F792FAA
:103B4000892F85D629513C4F4F4F5F4F6F4F7F4F85
:103B50008F4F9F4FD8D420E030E84BEB55E4C3D3D0
:103B60002FD4F22FE32F8F2F9E2FA42FB52F019745
:103B7000A109B1090097A105B105C9F780E090E05E
:103B800072DEE981FA819F2F990F990BA12C0F2EDC
:103B9000FCE6BF2EF02D0F2EFCEDCF2EF02D6894FD
:103BA000DD24D1F8E12CF12C00E010E02E2F3F2F86
:103BB000492F592F692F792F892F49D629513C4FE9
:103BC0004F4F5F4F6F4F7F4F8F4F9F4F9CD420E0E1
:103BD00030E84BEB55E487D3F3D3F22FE32F8F2F4D
:103BE0009E2FA42FB52F0197A109B1090097A10518
:103BF000B105C9F780E090E04EDEE981FA819F2FA0
:103C0000990F990BA12C0F2EFCE6BF2EF02D0F2E35
:103C1000FCEDCF2EF02D6894DD24D1F8E12CF12CB1
:103C200000E010E02E2F3F2F492F592F692F792FB9
:103C3000892F0DD629513C4F4F4F5F4F6F4F7F4F0C
:103C40008F4F9F4F60D420E030E84BEB55E44BD3CF
:103C5000B7D3F22FE32F8F2F9E2FA42FB52F0197CD
:103C6000A109B1090097A105B105C9F780E090E06D
:103C70002ADEE981FA819F2F990F990BA12C0F2E33
:103C8000FCE6BF2EF02D0F2EFCEDCF2EF02D68940C
:103C9000DD24D1F8E12CF12C00E010E02E2F3F2F95
:103CA000492F592F692F792F892FD1D529513C4F71
:103CB0004F4F5F4F6F4F7F4F8F4F9F4F24D420E068
:103CC00030E84BEB55E40FD37BD3F22FE32F8F2F4C
:103CD0009E2FA42FB52F0197A109B1090097A10527
:103CE000B105C9F789819A810F9689839A83898161
:103CF0009A81843691050CF415CE0F900F90DF91C8
:103D0000CF911F910F91FF90EF90DF90CF90BF90D8
:103D1000AF90089588E0E0E4F6E082830895CF93C1
:103D2000C82F8A3021F48DE090E00E9418048C2F77
:103D3000992787FD90950E94180480E090E0CF912C
:103D400008950F931F93CF93DF938C010E944A0332
:103D50008823E1F30E949603EC01B801E0DFCE0175
:103D60009927DF91CF911F910F91089587E0E0EAA5
:103D7000F0E0828378940E9406050E9455108CE73B
:103D800090E280933B2E90933C2E8093392E90931B
:103D90003A2E089501DB892B69F149DB83309105C7
:103DA00071F034F48130910591F00297A1F01FC0B9
:103DB00085309105A1F03CF00697A9F018C080E28B
:103DC00091E2B0C5089584E291E2ACC508958AE21B
:103DD00091E2A8C5089580E391E2A4C5089587E320
:103DE00091E2A0C508958DE391E29CC5089582E417
:103DF00091E298C508951F920F920FB60F92112469
:103E00002F933F934F935F936F937F938F939F93E2
:103E1000AF93BF93EF93FF93BDDF82E090E023DD8C
:103E2000FF91EF91BF91AF919F918F917F916F9192
:103E30005F914F913F912F910F900FBE0F901F9068
:103E400018951F920F920FB60F9211242F933F9344
:103E50004F935F936F937F938F939F93AF93BF9392
:103E6000EF93FF9382E090E0E6DCFF91EF91BF914A
:103E7000AF919F918F917F916F915F914F913F9102
:103E80002F910F900FBE0F901F9018954F925F9239
:103E90006F927F928F929F92AF92BF92CF92DF925A
:103EA000EF92FF9229013A016B017C01C21AD30AF9
:103EB000E40AF50AC0920324D0920424E092052477
:103EC000F09206248091FB239091FC23A091FD2386
:103ED000B091FE23A7019601281B390B4A0B5B0BFF
:103EE000CA01B901D5D22CEA35EC47E258E3D2D366
:103EF0009B01AC016091FF2370910024809101240B
:103F00009091022487D14B015C01C701B601C0D258
:103F100022E539E44DE15BE3BDD39B01AC01C50172
:103F2000B40179D14B015C016093F7237093F823BE
:103F30008093F9239093FA238091F3239091F423B3
:103F4000A091F523B091F623C80ED91EEA1EFB1EE0
:103F5000C092F323D092F423E092F523F092F6235B
:103F6000C501B40162D2F62EE72E6093F12370935F
:103F7000F22320E030E046EC52E4C501B40186D3E0
:103F800018166CF440E050E066EC72E44093F723BE
:103F90005093F8236093F9237093FA2315C020E01F
:103FA00030E046EC52ECC501B40199D1882364F4A9
:103FB00040E050E066EC72E44093F7235093F8231E
:103FC0006093F9237093FA23809107249091082439
:103FD000FC01EE0FFF1FE752FB4D40825182FC01B6
:103FE000EF51F44DF08201968093072490930824BA
:103FF0008F2D9E2DEADB8091F7239091F823A091DD
:10400000F923B091FA238093FF2390930024A09387
:104010000124B09302248091032490910424A09160
:104020000524B09106248093FB239093FC23A09356
:10403000FD23B093FE23FF90EF90DF90CF90BF90D1
:10404000AF909F908F907F906F905F904F9008956A
:10405000CF93DF9300D01F92CDB7DEB7DCDB4BDC14
:1040600041E050E065E084E090DBE0E4F6E080E4ED
:10407000828380E882838FB7F894E6E5F6E090814A
:10408000977090839081986190838FBF8FB7F894D9
:10409000E7E5F6E090819770908390819861908336
:1040A0008FBF80E498E00E94240C8FEF9FEF8093F5
:1040B00066089093670887E08093400881E090E06D
:1040C000BADB00E618E0F8011082118280E090E08F
:1040D0007CDBF801C080D180198200E010E01A82F8
:1040E0001B82212C312C0F2EF0E6EF2EF8E0FF2E54
:1040F000F02D0F2EF8E84F2EFFEC5F2EF2E06F2E22
:10410000712CF02D43C00733110548F0A50194012F
:1041100064E975E080E090E0B9DE00E010E0F701CE
:10412000808191818C159D05A1F10F5F1F4FC0808B
:10413000D1802A813B812F5F3F4F2A833B83398186
:104140003130D1F486E18ADA892BB1F48A819B81FE
:10415000883B9B4020F0F8EBFA832BE02B838A818D
:104160009B819C0140E050E0C301B2013FD31901A3
:1041700019821A821B820AC086E170DAE9812E2F29
:1041800030E02817390711F0F1E0F9834101A12C43
:10419000B12C8091072490910824883592400CF42A
:1041A000B2CF81E090E0809307249093082408E444
:1041B00011E2FC01EF51F44D4081242F332727FDFC
:1041C00030953F934F93FC01EE0FFF1FE752FB4DDD
:1041D00021812F9320812F939F938F931F930F9370
:1041E00090D380910724909108240196809307240E
:1041F00090930824CDBFDEBF8835F2E09F07CCF254
:1042000080E090E0E2DA86E129DA45DB87E126DA30
:104210005ADBF9CF5058BB27AA270ED0FDC1EED1EB
:1042200030F0F3D120F031F49F3F11F41EF4D3C1EC
:104230000EF4E095E7FBC9C1E92FFFD180F3BA176F
:10424000620773078407950718F071F49EF517C28B
:104250000EF4E0950B2EBA2FA02D0B01B9019001A1
:104260000C01CA01A0011124FF27591B99F0593FE5
:1042700050F4503E68F11A16F040A22F232F342F2D
:104280004427585FF3CF469537952795A795F0407B
:104290005395C9F77EF41F16BA0B620B730B840B90
:1042A000BAF09150A1F0FF0FBB1F661F771F881F48
:1042B000C2F70EC0BA0F621F731F841F48F48795A0
:1042C00077956795B795F7959E3F08F0B3CF93958F
:1042D000880F08F09927EE0F97958795089551D18B
:1042E00008F481E008950CD097C18FD140F086D1B9
:1042F00030F021F45F3F19F068C15111C1C16BC1A9
:104300009CD198F39923C9F35523B1F3951B550B11
:10431000BB27AA2762177307840738F09F5F5F4F98
:10432000220F331F441FAA1FA9F333D00E2E3AF0D9
:10433000E0E830D091505040E695001CCAF729D0F3
:10434000FE2F27D0660F771F881FBB1F2617370742
:104350004807AB07B0E809F0BB0B802DBF01FF2772
:1043600093585F4F2AF09E3F510568F02EC188C1D7
:104370005F3FECF3983EDCF3869577956795B795AC
:10438000F7959F5FC9F7880F911D9695879597F9C7
:104390000895E1E0660F771F881FBB1F6217730740
:1043A0008407BA0720F0621B730B840BBA0BEE1F55
:1043B00088F7E0950895BEE304D008F490E80895E6
:1043C000BFE322273327A90140D158F19F5740F17D
:1043D000B91738F1BFE3B91B9927B8503AF4660F03
:1043E000771F881F991FB395D2F316C0B8504AF0B3
:1043F000232F342F452F562F672F782F8827B8501B
:10440000BAF7B85F49F086957795679557954795C0
:1044100037952795BA95B9F70EF4E0D088940895AA
:10442000889460E070E0CB01089504D06894B111E5
:1044300027C108950AD188F09F5790F0B92F992786
:10444000B751A0F0D1F0660F771F881F991F1AF09F
:10445000BA95C9F712C0B13081F011D1B1E0089519
:104460000EC1672F782F8827B85F39F0B93FCCF39A
:10447000869577956795B395D9F73EF49095809595
:10448000709561957F4F8F4F9F4F0895E89409C0B5
:1044900097FB3EF490958095709561957F4F8F4F77
:1044A0009F4F9923A9F0F92F96E9BB279395F6958D
:1044B000879577956795B795F111F8CFFAF4BB0F0B
:1044C00011F460FF1BC06F5F7F4F8F4F9F4F16C06F
:1044D000882311F096E911C0772321F09EE8872FF9
:1044E000762F05C0662371F096E8862F70E060E0B5
:1044F0002AF09A95660F771F881FDAF7880F96952E
:10450000879597F90895E894F92F96EBFF2381F0AA
:10451000121613061406440B9395F6958795779516
:10452000679557954040FF23B9F71BC09927089519
:10453000882351F49850D2F7872B762F652F542F6C
:10454000432F322F20E0B1F3121613061406440B4A
:1045500088233AF09A95440F551F661F771F881FCE
:10456000CAF755234AF4440F551F11F460FF04C0E5
:104570006F5F7F4F8F4F9F4F880F9695879597F965
:104580000895990F0008550FAA0BE0E8FEEF1616E4
:104590001706E807F907C0F012161306E407F50737
:1045A00098F0621B730B840B950B39F40A2661F0AB
:1045B000232B242B252B21F408950A2609F4A1404E
:1045C000A6958FEF811D811D089597F99F6780E85B
:1045D00070E060E008959FEF80EC089590958095DD
:1045E0007095609550954095309521953F4F4F4F70
:1045F0005F4F6F4F7F4F8F4F9F4F089500240A9456
:104600001616170618060906089500240A941216AD
:104610001306140605060895092E0394000C11F4E0
:10462000882352F0BB0F40F4BF2B11F460FF04C08D
:104630006F5F7F4F8F4F9F4F089557FD9058440FE6
:10464000551F59F05F3F71F04795880F97FB991FF1
:1046500061F09F3F79F087950895121613061406AE
:10466000551FF2CF4695F1DF08C01616170618063B
:10467000991FF1CF86957105610508940895E89416
:10468000BB2766277727CB0197F908957ADF08F4CF
:104690008FEF08950BD0C0CFB1DF28F0B6DF18F050
:1046A000952309F092CF97CF1124EACFC6DFA0F36C
:1046B000959FD1F3950F50E0551F629FF001729FB7
:1046C000BB27F00DB11D639FAA27F00DB11DAA1FD6
:1046D000649F6627B00DA11D661F829F2227B00D23
:1046E000A11D621F739FB00DA11D621F839FA00DAE
:1046F000611D221F749F3327A00D611D231F849FFE
:10470000600D211D822F762F6A2F11249F57504054
:104710008AF0E1F088234AF0EE0FFF1FBB1F661FEF
:10472000771F881F91505040A9F79E3F510570F0A8
:104730004CCFA6CF5F3FECF3983EDCF386957795A0
:104740006795B795F795E7959F5FC1F7FE2B880FA3
:10475000911D9695879597F90895AA1BBB1B51E16A
:1047600007C0AA1FBB1FA617B70710F0A61BB70BE1
:10477000881F991F5A95A9F780959095BC01CD0186
:10478000089597FB072E16F4009406D077FD08D005
:10479000E4DF07FC05D03EF4909581959F4F089586
:1047A000709561957F4F0895A1E21A2EAA1BBB1B3D
:1047B000FD010DC0AA1FBB1FEE1FFF1FA217B307ED
:1047C000E407F50720F0A21BB30BE40BF50B661F03
:1047D000771F881F991F1A9469F7609570958095C7
:1047E00090959B01AC01BD01CF010895052E97FB6B
:1047F00016F400940FD057FD05D0D6DF07FC02D089
:1048000046F408C050954095309521953F4F4F4F45
:104810005F4F089590958095709561957F4F8F4F6C
:104820009F4F0895EE0FFF1F0590F491E02D09941E
:10483000A29FB001B39FC001A39F700D811D1124E1
:10484000911DB29F700D811D1124911D0895DF935C
:10485000CF931F930F939A9DF02D219FF00D8B9D69
:10486000F00D8A9DE02DF10D039FF00D029FE00DEC
:10487000F11D4E9DE00DF11D5E9DF00D4F9DF00D63
:104880007F936F93BF92AF925F934F93D501D0DF29
:104890008B01AC01D701CCDFEB01E80FF91FD6018A
:1048A0001FD02F913F91D601C3DFC60FD71FE81F3E
:1048B000F91FAF91BF9114D02F913F91B9DFC60F6F
:1048C000D71FE81FF91FD601B3DFE60FF71F9801C6
:1048D000BE01CF0111240F911F91CF91DF91089557
:1048E000A7DF460F571FC81FD91F08F43196089538
:1048F000FB01DC0102C001900D9241505040D8F7FD
:104900000895A0E0B0E0E6E8F4E2B2C2FE01359618
:1049100061917191AF0180913B2E90913C2E2FD0EF
:10492000E2E0BFC20F931F93CF93DF93E0913B2E42
:10493000F0913C2E238121FF1BC0EC0100E010E030
:10494000899160913B2E70913C2EDB011896ED9180
:10495000FC911997882331F00995892B89F30FEF82
:104960001FEFEECF8AE00995892B11F4C80102C030
:104970008FEF9FEFDF91CF911F910F910895ACE0E2
:10498000B0E0E4ECF4E264C27C016B018A01FC015A
:1049900016821782838181FFB0C1CE0101964C013E
:1049A000F7019381F60193FD859193FF81916F014A
:1049B000882309F49EC1853239F493FD859193FFD4
:1049C00081916F01853221F4B70190E0B1D1E8CF38
:1049D000512C312C20E02032A0F48B3269F030F4DD
:1049E000803259F0833269F420612CC08D3239F065
:1049F000803339F4216026C02260246023C02860FF
:104A000021C027FD27C030ED380F3A3078F426FF5B
:104A100006C0FAE05F9E300D1124532E13C08AE0C9
:104A2000389E300D1124332E20620CC08E3221F4BA
:104A300026FD5FC1206406C08C3611F4206802C0D8
:104A4000883641F4F60193FD859193FF81916F01C2
:104A50008111C1CF982F9F7D9554933028F40C5F1E
:104A60001F4FFFE3F9830DC0833631F0833771F0B8
:104A7000833509F057C021C0F801808189830E5F1A
:104A80001F4F44244394512C540114C03801F2E0C8
:104A90006F0E711CF801A080B18026FF03C0652D48
:104AA00070E002C06FEF7FEFC5012C8736D12C017B
:104AB00083012C852F77222E16C03801F2E06F0E6D
:104AC000711CF801A080B18026FF03C0652D70E045
:104AD00002C06FEF7FEFC5012C8714D12C012C850C
:104AE0002068222E830123FC19C0832D90E04816F4
:104AF0005906A0F4B70180E290E01AD13A94F5CFBC
:104B0000F50127FC859127FE81915F01B70190E0B7
:104B10000FD131103A94F1E04F1A51084114510469
:104B200079F7DEC0843611F0893631F5F80127FFB8
:104B300007C060817181828193810C5F1F4F08C023
:104B400060817181882777FD8095982F0E5F1F4FB8
:104B50002F76B22E97FF09C090958095709561953C
:104B60007F4F8F4F9F4F2068B22E2AE030E0A40184
:104B700011D1A82EA81843C0853729F42F7EB22E54
:104B80002AE030E025C0F22FF97FBF2E8F36C1F02A
:104B900018F4883579F0ADC0803719F0883721F0E6
:104BA000A8C02F2F2061B22EB4FE0DC08B2D8460C3
:104BB000B82E09C024FF0AC09F2F9660B92E06C0E8
:104BC00028E030E005C020E130E002C020E132E022
:104BD000F801B7FE07C060817181828193810C5F0B
:104BE0001F4F06C06081718180E090E00E5F1F4F13
:104BF000A401D0D0A82EA818FB2DFF77BF2EB6FE9B
:104C00000BC02B2D2E7FA51450F4B4FE0AC0B2FCAD
:104C100008C02B2D2E7E05C07A2C2B2D03C07A2C9C
:104C200001C0752C24FF0DC0FE01EA0DF11D80812D
:104C3000803311F4297E09C022FF06C07394739457
:104C400004C0822F867809F0739423FD12C020FFE0
:104C500006C05A2C731418F4530C5718732C731481
:104C600060F4B70180E290E02C8762D073942C85C9
:104C7000F6CF731410F4371801C0312C24FF11C083
:104C8000B70180E390E02C8753D02C8522FF16C01B
:104C900021FF03C088E590E002C088E790E0B701FB
:104CA0000CC0822F867851F021FD02C080E201C045
:104CB0008BE227FD8DE2B70190E03AD0A51430F4E5
:104CC000B70180E390E034D05A94F8CFAA94F4016D
:104CD000EA0DF11D8081B70190E02AD0A110F6CF36
:104CE000332009F45DCEB70180E290E021D03A9400
:104CF000F7CFF7018681978102C08FEF9FEF2C9647
:104D0000E2E1BFC0FC010590615070400110D8F78E
:104D1000809590958E0F9F1F0895FC016150704003
:104D200001900110D8F7809590958E0F9F1F0895E0
:104D30000F931F93CF93DF93182F092FEB018B81D4
:104D400081FD03C08FEF9FEF20C082FF10C04E8116
:104D50005F812C813D81421753077CF4E881F98102
:104D60009F012F5F3F4F28833983108306C0E8855A
:104D7000F985812F0995892B29F72E813F812F5F96
:104D80003F4F2E833F83812F902FDF91CF911F9133
:104D90000F910895FA01AA27283051F1203181F1AD
:104DA000E8946F936E7F6E5F7F4F8F4F9F4FAF4F33
:104DB000B1E03ED0B4E03CD0670F781F891F9A1F46
:104DC000A11D680F791F8A1F911DA11D6A0F711DFA
:104DD000811D911DA11D20D009F468943F912AE006
:104DE000269F11243019305D3193DEF6CF010895EE
:104DF000462F4770405D4193B3E00FD0C9F7F6CF1F
:104E0000462F4F70405D4A3318F0495D31FD4052E6
:104E1000419302D0A9F7EACFB4E0A695979587957C
:104E200077956795BA95C9F700976105710508955B
:104E30009B01AC010A2E0694579547953795279507
:104E4000BA95C9F7620F731F841F951FA01D08959F
:104E50002F923F924F925F926F927F928F929F928A
:104E6000AF92BF92CF92DF92EF92FF920F931F9378
:104E7000CF93DF93CDB7DEB7CA1BDB0BCDBFDEBF51
:104E800009942A88398848885F846E847D848C845C
:104E90009B84AA84B984C884DF80EE80FD800C8165
:104EA0001B81AA81B981CE0FD11DCDBFDEBFED011F
:064EB0000895F894FFCF05
:104EB600E70261016B016D01830223015B016F0152
:104EC6006D010000040309046A201E20000026204C
:104ED60022200A20002009024300020100C03209F4
:104EE600040000010202010005240010010424024E
:104EF600020524060001052401030107058203407B
:104F0600001009040100020A0000000705810240A2
:104F16000000070502024000000012010002020024
:104F26000040EB0304240001000000010000000320
:104F3600000000008F1EA11E0000496E69636961B2
:104F46006C697A6163696F6E20436F727265637410
:104F560061004572726F7220656E20696E696369C1
:104F66006F0053656E736F72206465206765737496
:104F76006F7320616374697661646F0066616C6C3F
:104F86006F20656E20696E6963696F2073656E7345
:104F96006F7220646520676573746F7300496E7461
:104FA600657272757063696F6E206163746976618C
:104FB600646F0066616C6C6F20656E20696E696354
:104FC600696F20696E74657272757063696F6E00C1
:104FD60055502000444F574E20004C454654200063
:104FE600524947485420004E4541522000464152FE
:104FF60020004E4F4E452000256420256420256460
:025006000A009E
:00000001FF
