:1000000004C100001FC100001DC100001BC1000091
:1000100019C1000017C1000015C1000013C1000084
:1000200011C100000FC100000DC100000BC1000094
:1000300009C100000C94130DDDC700000C942308C7
:100040000C944C080C9475080C949E080C94C708EA
:100050000C94F0080C9419090C9442090C946B0947
:10006000F1C00000EFC00000EDC00000EBC00000D8
:10007000E9C00000E7C00000E5C00000E3C00000E8
:10008000E1C00000DFC00000DDC00000DBC00000F8
:10009000D9C00000D7C00000D5C00000D3C0000008
:1000A000D1C00000CFC00000CDC000000C9486205D
:1000B0000C94AC200C9419230C94360D0C942E0B3C
:1000C0000C94570B0C94800B0C94A90B0C94D20B32
:1000D0000C94FB0BB7C00000B5C00000B3C000001B
:1000E000B1C00000AFC00000ADC00000ABC0000058
:1000F000A9C00000A7C00000A5C00000A3C0000068
:10010000A1C000009FC000009DC000009BC0000077
:1001100099C0000097C0000095C0000093C0000087
:1001200091C000008FC000008DC000008BC0000097
:1001300089C000000C9494090C94BD090C94E60944
:100140000C940F0A0C94380A0C94610A0C948A0AD5
:100150000C94B30A0C94DC0A0C94050B73C00000D9
:1001600071C000006FC000006DC000006BC00000D7
:1001700069C0000067C0000065C0000063C00000E7
:1001800061C000005FC000005DC000005BC00000F7
:1001900059C0000057C0000055C0000053C0000007
:1001A00051C000004FC000004DC000004BC0000017
:1001B00049C0000047C0000045C0000043C0000027
:1001C00041C000003FC000003DC000003BC0000037
:1001D00039C0000037C0000035C0000033C0000047
:1001E00031C000002FC000002DC000002BC0000057
:1001F00029C000000C948D130C944314990F870FA1
:100200008A0F8D0F900F930F960F11241FBECFEF03
:10021000CDBFDFE2DEBF11E2A0E0B0E2EAEEFFE434
:1002200002C005900D92A834B107D9F727E2A8E4DF
:10023000B1E201C01D92A836B207E1F70E94612326
:100240000C94F327DDCE10925E2210926A22109257
:100250006B2281EA8093602280E280936122109277
:10026000622210926322109264221092652282E030
:1002700090E08093662290936722109268221092F9
:10028000692280E092ECA1E0B0E080936C22909330
:100290006D22A0936E22B0936F2210927022109262
:1002A000712288E08093722280915E228F5F80931A
:1002B0005E2281E0089580915E22815080935E22CB
:1002C000089580915D22815080935D2280915D220E
:1002D00010925C22089580E0089580E00895809156
:1002E00021248823DCF480768032E9F58091222471
:1002F0008132D9F580912724909128240797B9F568
:100300008CE692E28093292490932A2487E090E05F
:1003100080932B2490932C2481E008958076803262
:1003200041F580912224803221F0823221F581E052
:10033000089580912724909128240797F1F48FEB5A
:1003400091E080932D2490932E248CE692E280936A
:10035000292490932A2487E090E080932B24909383
:100360002C2481E0089580E0089580E0089580E0E5
:10037000089580E0089580E0089580E0089508954C
:10038000FF920F931F93CF93DF9380914B218111A5
:100390009CC00E94CF11882351F0C0914C21D09174
:1003A0004D210E94DC11C817D90759F48EC0C091A5
:1003B0004C21D0914D210E94D711C817D90709F4BB
:1003C00084C0DFB7F894C0914E21EC2FF0E0EE0F1F
:1003D000FF1FE15BFE4D80819181892B09F58091A2
:1003E0004821909149210196809348219093492179
:1003F0000E94CF11811107C080914821909149211D
:100400008436910558F00E94CF11882349F08091DD
:100410004821909149218032934010F4DFBF55C0AC
:10042000109248211092492180914A21811106C0E1
:1004300081E0C11180E080934E2104C081E0C111B0
:1004400080E0C82F81E080934B21DFBFD0E0FE0128
:10045000EE0FFF1FE15BFE4DFF24F394808191813D
:100460008034910509F4F12CFF2091F00E94CF1106
:10047000882339F00E94DC1180934C2190934D2108
:100480000BC00E94D71180934C2190934D2104C042
:1004900010924C2110924D21FE01EE0FFF1FE15BE7
:1004A000FE4D20813181AE01002456954795079479
:1004B000569547950794542F402D4C5A5E4D0BE6A8
:1004C00012E06F2D81E80E948E12DF91CF911F9173
:1004D0000F91FF900895811115C020914E2181E068
:1004E00090E0222311F080E090E0FC01EE0FFF1F6E
:1004F000E15BFE4D1082118210924A2110924B2135
:1005000080E03ECF089580E03BCF08954FB7F89448
:100510002091D5213091D621E091D721F0E0EE0F46
:10052000FF1FE852FE4D80819181821B930B4FBFCC
:100530000895ECDF21E0892B09F420E0822F089553
:100540000F931F93CF93DF934FB7F8945091D72118
:100550008091D421811110C02091D5213091D621D4
:10056000C52FD0E0FE01EE0FFF1FE852FE4D808147
:1005700091812817390718F44FBF80E023C01092EB
:10058000D5211092D62181E0511180E08093D721AE
:1005900081E08093D4214FBF80E0CBDFAE01002407
:1005A000569547950794569547950794542F402D97
:1005B00044525E4D09E113E020E430E061E082E066
:1005C0000E948E12DF91CF911F910F91089510928A
:1005D0005D2210924B2110924A2110924E211092CE
:1005E0004F211092502110925121109252211092BD
:1005F0004C2110924D2180E0C3DE1092D421109244
:10060000D7211092D8211092D9211092D521109281
:10061000D62180E095DF882359F090915D229F5F7D
:1006200090935D2290915D22913011F490935C2221
:1006300008950F931F93942F811129C08091D72182
:10064000E1E08111E0E061157105B1F4F0E0002412
:10065000F695E7950794F695E7950794FE2FE02D1C
:10066000AF0144525E4D09E113E020E430E061E067
:10067000892F0E948E120BC0F0E0EE0FFF1FE85290
:10068000FE4D608371831092D42180E059DF1F9169
:100690000F91089580E04DCF08951F93CF93DF937E
:1006A00011E080917222893009F010E060E070E082
:1006B0003FB7F8948091D5219091D6212091D721F0
:1006C0003FBF30E0F901EE0FFF1FE852FE4D4081C1
:1006D00051818417950730F080915C228111E8CF19
:1006E00090E020C0F9010024F695E7950794F6956F
:1006F000E7950794FE2FE02DE80FF91FE452FE4D19
:100700002081EB01C22B01968093D5219093D621B5
:1007100080E016DF112321F07C2F662710E0C8CF80
:100720008C2F9D2FDF91CF911F91089580E0B5CF41
:1007300008955FB7F89420914E21E22FF0E0EE0F7C
:10074000FF1FE15BFE4D8081918141E0211140E07E
:10075000E42FF0E0EE0FFF1FE15BFE4D20813181C1
:100760008034910589F460914B2161110DC0609135
:100770004A21611109C081E080934A2140934E21B2
:1007800020E430E080E090E05FBF280F391F80E870
:1007900090E0821B930B0895CCDF21E0892B09F4B4
:1007A00020E0822F08951F93CF93DF93162FC72F3A
:1007B000D1E080917222893009F0D0E080E0ECDF56
:1007C000811107C080915C228111F8CF80E090E018
:1007D0002BC06FB7F89420914E2130E0F901EE0F55
:1007E000FF1FE15BFE4D80819181AC014F5F5F4F48
:1007F00040835183F9010024F695E7950794F69517
:10080000E7950794FE2FE02D8E0F9F1FFC01EC5AF9
:10081000FE4D10836FBFDD2329F01C2FCC0FCC0BB6
:10082000D0E0CCCF81E090E0DF91CF911F9108958F
:10083000BC0180E0B8CF0895E0917822F091792250
:100840000190F081E02D228133812E0F3F1FFC01AA
:100850004081E40FF11DE217F307A0F48181843099
:10086000A1F0861306C014C081818430A1F08617E0
:10087000A9F08081E80FF11DE217F307A8F380E0EB
:1008800090E0089580E090E0089580E090E0089581
:100890008E2F9F2F089580E090E008958E2F9F2F38
:1008A0000895809123248F770C94D111089590910D
:1008B0007A22992381F1E0917822F09179220190B6
:1008C000F081E02D9481891740F5E0937622F09332
:1008D0007722228133812E0F3F1FE217F307F8F4AE
:1008E0009181943061F49281981309C09381961399
:1008F00006C0E0937622F093772281E008959081FC
:10090000E90FF11DE217F30758F3E0937622F09315
:10091000772280E0089580E0089580E0089580E0E7
:100920000895FF920F931F93CF93DF93C82F60E03A
:10093000BEDFF82E882381F1A0917822B091792230
:10094000EC2FF0E0EE0FFF1F12962D913C911397C4
:10095000E20FF31F00811181D8011696ED91FC91F1
:1009600017970995682F8C2FA2DFF82E8823A1F006
:10097000C0917622D091772265E0CE015DDFEC0157
:10098000009721F08A810E944F13F6CFD80112966A
:10099000ED91FC91139709958F2DDF91CF911F91C8
:1009A0000F91FF9008951F93CF93DF93182F7FDF50
:1009B000882341F1C0917622D091772265E0CE0163
:1009C0003BDFEC01009749F04C815D816B818A81AE
:1009D0000E94E8118111F2CF15C0A0917822B09148
:1009E0007922812F90E0880F991F1296ED91FC914A
:1009F0001397E80FF91F0190F081E02D0190F0812D
:100A0000E02D0995DF91CF911F9108950C945E110F
:100A10000895CF9380917A228823C1F0E0917822C3
:100A2000F09179220190F081E02D8481882371F08A
:100A3000C0E08C2F76DFCF5FE0917822F0917922B1
:100A40000190F081E02D8481C81798F310927A22EA
:100A500081E090E080937B2290937C22CF91089557
:100A6000CF9380917A22882341F1E0917822F0910E
:100A70007922A081B18114968C918823F1F0C0E095
:100A80008C2F90E0880F991F0280F381E02DE80FF2
:100A9000F91F0190F081E02D0084F185E02D309761
:100AA00009F00995CF5FE0917822F0917922A08139
:100AB000B18114968C91C81718F3CF910895EF92D5
:100AC000FF920F931F93CF93DF9310922B241092DA
:100AD0002C2410922D2410922E2410922F24109248
:100AE00030242091212422230CF072C280912724EB
:100AF00090912824009709F070C266C22F7109F006
:100B000091C030912224363089F0383009F47EC00B
:100B1000311188C0029741F462E070E08BE792E205
:100B20000E94DF1101E0D3C100E0D1C12091232454
:100B300030912424832F992782309105A1F01CF451
:100B4000019739F059C083309105E9F10F9769F1A8
:100B500053C08091182090911920DC016C9170E0B5
:100B60000E94DF1138C0E0911820F091192081898E
:100B7000281708F043C0C9019927880F991F880FCB
:100B8000991FE0911A20F0911B20E80FF91F808136
:100B90009181FC01628173810E94DF11E09129241F
:100BA000F0912A2482E0818316C080911C209091CC
:100BB0001D20009729F1DC0112966D917C9113970D
:100BC0000E94DF1108C021111DC064E070E084E1C3
:100BD00090E20E94DF118091272490912824209197
:100BE0002B2430912C248217930770F480932B24AC
:100BF00090932C2401E06BC100E069C100E067C163
:100C000000E065C100E063C101E061C1019741F40A
:100C100061E070E08AE792E20E94DF1101E057C1D3
:100C200000E055C1213009F040C0309122243A3013
:100C3000E1F50197A1F580917A22882391F1C09185
:100C40002524D0912624E0907822F0907922D701B3
:100C5000ED91FC918481C81730F560E08C2F27DE80
:100C6000082F882309F433C1CE019927880F991FD3
:100C7000D7011296ED91FC911397E80FF91F01909F
:100C8000F081E02D0680F781E02D09958093752293
:100C900061E070E085E792E20E94DF1118C100E098
:100CA00016C100E014C100E012C1223009F011C1E8
:100CB00020912224211106C1029789F480912524D4
:100CC0000E94491290E0809373229093742262E014
:100CD00070E083E792E20E94DF1101E0F8C000E0DB
:100CE000F6C02F7109F091C080912224833009F45D
:100CF000EBC018F48130B1F088C0853019F089302C
:100D000061F183C08091272490912824892B41F49C
:100D100081E594E080932D2490932E2401E0D7C0A8
:100D200000E0D5C08091272490912824892B89F454
:100D30008091232490912424019769F480917B224F
:100D400090917C228D7F80937B2290937C2201E086
:100D5000BEC000E0BCC000E0BAC0809127249091E2
:100D60002824892B09F047C00E94D411882309F454
:100D700044C020912324309124243327E09118206B
:100D8000F0911920818990E082179307C0F141DE2C
:100D9000809123249091242480937A22882389F1BE
:100DA00099278150904C880F991F880F991FE091C7
:100DB0001A20F0911B20E80FF91FE0937822F0939E
:100DC00079220190F081E02D84818823E1F0C0E058
:100DD00060E08C2FE8DD082F882309F478C0CF5F0E
:100DE000E0917822F09179220190F081E02D8481C8
:100DF000C81770F36CC000E06AC000E068C000E093
:100E000066C001E064C001E062C0213009F5809154
:100E100022248B30E9F48091272490912824892B77
:100E200099F480917A22882389F0C0912524D09169
:100E300023248C2F76DD082F882309F448C06D2FDA
:100E40008C2FB1DD082F43C000E041C000E03FC05F
:100E5000223009F03EC080912224813019F0833085
:100E6000B9F034C08091272490912824892B61F413
:100E70008091232490912424892B41F4809125246E
:100E80000E946412082F23C000E021C000E01FC0B0
:100E90008091272490912824892B81F48091232408
:100EA00090912424892B61F4C5E2D4E288810E94C8
:100EB000161388810E946C13082F09C000E007C038
:100EC00000E005C000E003C000E001C000E0011147
:100ED00089C0809121248F718130C1F580917A225F
:100EE0008823A1F1C0912524D09126240091782255
:100EF00010917922D801ED91FC918481C81730F5C9
:100F000060E08C2FD4DC882309F1CE019927880F6B
:100F1000991FD8011296ED91FC911397E80FF91FD4
:100F200000811181D8011696ED91FC9117970995D2
:100F3000682F8C2FBCDC882349F0D8011496ED91E2
:100F4000FC9115970995082F81114CC0809121249F
:100F50008F718230D9F580917A22882389F1E091CE
:100F60007822F0917922A081B18114968C91882306
:100F700049F110E0212F30E0220F331F0280F3816E
:100F8000E02DE20FF31FC081D181EE81FF81099531
:100F9000682F812F8CDC082F882321F1EC81FD81C3
:100FA0000995082F81111EC01F5FE0917822F091F2
:100FB0007922A081B18114968C911817D8F212C0B1
:100FC00000E010C000E00EC000E00CC000E00AC06D
:100FD000822F807609F07DCF84CE322F307609F0D3
:100FE00078CF8CCD802FDF91CF911F910F91FF9003
:100FF000EF9008951F920F920FB60F9211242F9326
:101000003F934F935F936F937F938F939F93AF9390
:10101000BF93EF93FF93E091AF22F091B02230970E
:1010200009F00995FF91EF91BF91AF919F918F9139
:101030007F916F915F914F913F912F910F900FBED4
:101040000F901F9018951F920F920FB60F921124B8
:101050002F933F934F935F936F937F938F939F93C0
:10106000AF93BF93EF93FF93E091AD22F091AE2247
:10107000309709F00995FF91EF91BF91AF919F9142
:101080008F917F916F915F914F913F912F910F9031
:101090000FBE0F901F9018951F920F920FB60F92D0
:1010A00011242F933F934F935F936F937F938F936D
:1010B0009F93AF93BF93EF93FF93E091AB22F09197
:1010C000AC22309709F00995FF91EF91BF91AF9154
:1010D0009F918F917F916F915F914F913F912F9150
:1010E0000F900FBE0F901F9018951F920F920FB682
:1010F0000F9211242F933F934F935F936F937F939E
:101100008F939F93AF93BF93EF93FF93E091A922A7
:10111000F091AA22309709F00995FF91EF91BF91C4
:10112000AF919F918F917F916F915F914F913F917F
:101130002F910F900FBE0F901F9018951F920F9236
:101140000FB60F9211242F933F934F935F936F939A
:101150007F938F939F93AF93BF93EF93FF93E09110
:10116000A722F091A822309709F00995FF91EF91FD
:10117000BF91AF919F918F917F916F915F914F91AF
:101180003F912F910F900FBE0F901F9018951F92B7
:101190000F920FB60F9211242F933F934F935F93AB
:1011A0006F937F938F939F93AF93BF93EF93FF932F
:1011B000E091A522F091A622309709F00995FF91C0
:1011C000EF91BF91AF919F918F917F916F915F91BF
:1011D0004F913F912F910F900FBE0F901F90189538
:1011E0001F920F920FB60F9211242F933F934F939C
:1011F0005F936F937F938F939F93AF93BF93EF937F
:10120000FF93E091A322F091A422309709F0099571
:10121000FF91EF91BF91AF919F918F917F916F91CE
:101220005F914F913F912F910F900FBE0F901F90A4
:1012300018951F920F920FB60F9211242F933F9380
:101240004F935F936F937F938F939F93AF93BF93CE
:10125000EF93FF93E091A122F091A222309709F041
:101260000995FF91EF91BF91AF919F918F917F91E0
:101270006F915F914F913F912F910F900FBE0F9003
:101280001F9018951F920F920FB60F9211242F9353
:101290003F934F935F936F937F938F939F93AF93FE
:1012A000BF93EF93FF93E0919F22F091A02230979C
:1012B00009F00995FF91EF91BF91AF919F918F91A7
:1012C0007F916F915F914F913F912F910F900FBE42
:1012D0000F901F9018951F920F920FB60F92112426
:1012E0002F933F934F935F936F937F938F939F932E
:1012F000AF93BF93EF93FF93E0919D22F0919E22D5
:10130000309709F00995FF91EF91BF91AF919F91AF
:101310008F917F916F915F914F913F912F910F909E
:101320000FBE0F901F9018951F920F920FB60F923D
:1013300011242F933F934F935F936F937F938F93DA
:101340009F93AF93BF93EF93FF93E0919B22F09114
:101350009C22309709F00995FF91EF91BF91AF91D1
:101360009F918F917F916F915F914F913F912F91BD
:101370000F900FBE0F901F9018951F920F920FB6EF
:101380000F9211242F933F934F935F936F937F930B
:101390008F939F93AF93BF93EF93FF93E091992225
:1013A000F0919A22309709F00995FF91EF91BF9142
:1013B000AF919F918F917F916F915F914F913F91ED
:1013C0002F910F900FBE0F901F9018951F920F92A4
:1013D0000FB60F9211242F933F934F935F936F9308
:1013E0007F938F939F93AF93BF93EF93FF93E0917E
:1013F0009722F0919822309709F00995FF91EF918B
:10140000BF91AF919F918F917F916F915F914F911C
:101410003F912F910F900FBE0F901F9018951F9224
:101420000F920FB60F9211242F933F934F935F9318
:101430006F937F938F939F93AF93BF93EF93FF939C
:10144000E0919522F0919622309709F00995FF914D
:10145000EF91BF91AF919F918F917F916F915F912C
:101460004F913F912F910F900FBE0F901F901895A5
:101470001F920F920FB60F9211242F933F934F9309
:101480005F936F937F938F939F93AF93BF93EF93EC
:10149000FF93E0919322F0919422309709F00995FF
:1014A000FF91EF91BF91AF919F918F917F916F913C
:1014B0005F914F913F912F910F900FBE0F901F9012
:1014C00018951F920F920FB60F9211242F933F93EE
:1014D0004F935F936F937F938F939F93AF93BF933C
:1014E000EF93FF93E0919122F0919222309709F0CF
:1014F0000995FF91EF91BF91AF919F918F917F914E
:101500006F915F914F913F912F910F900FBE0F9070
:101510001F9018951F920F920FB60F9211242F93C0
:101520003F934F935F936F937F938F939F93AF936B
:10153000BF93EF93FF93E0918F22F0919022309729
:1015400009F00995FF91EF91BF91AF919F918F9114
:101550007F916F915F914F913F912F910F900FBEAF
:101560000F901F9018951F920F920FB60F92112493
:101570002F933F934F935F936F937F938F939F939B
:10158000AF93BF93EF93FF93E0918D22F0918E2262
:10159000309709F00995FF91EF91BF91AF919F911D
:1015A0008F917F916F915F914F913F912F910F900C
:1015B0000FBE0F901F9018951F920F920FB60F92AB
:1015C00011242F933F934F935F936F937F938F9348
:1015D0009F93AF93BF93EF93FF93E0918B22F09192
:1015E0008C22309709F00995FF91EF91BF91AF914F
:1015F0009F918F917F916F915F914F913F912F912B
:101600000F900FBE0F901F9018951F920F920FB65C
:101610000F9211242F933F934F935F936F937F9378
:101620008F939F93AF93BF93EF93FF93E0918922A2
:10163000F0918A22309709F00995FF91EF91BF91BF
:10164000AF919F918F917F916F915F914F913F915A
:101650002F910F900FBE0F901F9018951F920F9211
:101660000FB60F9211242F933F934F935F936F9375
:101670007F938F939F93AF93BF93EF93FF93E091EB
:101680008722F0918822309709F00995FF91EF9118
:10169000BF91AF919F918F917F916F915F914F918A
:1016A0003F912F910F900FBE0F901F9018951F9292
:1016B0000F920FB60F9211242F933F934F935F9386
:1016C0006F937F938F939F93AF93BF93EF93FF930A
:1016D000E0918522F0918622309709F00995FF91DB
:1016E000EF91BF91AF919F918F917F916F915F919A
:1016F0004F913F912F910F900FBE0F901F90189513
:101700001F920F920FB60F9211242F933F934F9376
:101710005F936F937F938F939F93AF93BF93EF9359
:10172000FF93E0918322F0918422309709F009958C
:10173000FF91EF91BF91AF919F918F917F916F91A9
:101740005F914F913F912F910F900FBE0F901F907F
:1017500018951F920F920FB60F9211242F933F935B
:101760004F935F936F937F938F939F93AF93BF93A9
:10177000EF93FF93E0918122F0918222309709F05C
:101780000995FF91EF91BF91AF919F918F917F91BB
:101790006F915F914F913F912F910F900FBE0F90DE
:1017A0001F9018951F920F920FB60F9211242F932E
:1017B0003F934F935F936F937F938F939F93AF93D9
:1017C000BF93EF93FF93E0917F22F09180223097B7
:1017D00009F00995FF91EF91BF91AF919F918F9182
:1017E0007F916F915F914F913F912F910F900FBE1D
:1017F0000F901F9018951F920F920FB60F92112401
:101800002F933F934F935F936F937F938F939F9308
:10181000AF93BF93EF93FF93E0917D22F0917E22EF
:10182000309709F00995FF91EF91BF91AF919F918A
:101830008F917F916F915F914F913F912F910F9079
:101840000FBE0F901F901895CF93CFB7F894282F05
:10185000392F211588E0380749F461E083E00E94C0
:10186000951564E083E00E94951535C0203488E02A
:10187000380749F462E083E00E94951564E083E054
:101880000E94951528C0211589E0380749F461E0C8
:1018900084E00E94951564E084E00E9495151BC0C9
:1018A000203489E0380749F462E084E00E9495150D
:1018B00064E084E00E9495150EC021153A4049F479
:1018C00061E085E00E94951564E085E00E94951531
:1018D00002C0CFBF09C08FB7F894E2E3F4E2908171
:1018E0009F5F90838FBFCFBFCF910895CF93DF933A
:1018F000E091B122F091B222848183FF08C0886018
:10190000848383E0838386EF8093BB2289C0982FF2
:10191000947131F083E083838FEF8093BB2280C08A
:1019200086FF45C0A091B322B091B4228091B52228
:101930009091B62214962D913C911597821793079A
:101940006CF49C012F5F3F4F2093B5223093B62259
:10195000A80FB91F11968C91878362C08091B7221E
:101960009091B82218962D913C9119978217930760
:10197000C8F42091B922222321F0868181608683D8
:101980004FC016962D913C911797AC014F5F5F4F5A
:101990004093B7225093B822D901A80FB91F8C9158
:1019A00087833EC083E083831092BB2239C08823A3
:1019B000A4F5A091B322B091B4228091B722909166
:1019C000B82218962D913C91199782179307F8F435
:1019D00016964D915C9117979C012F5F3F4F209376
:1019E000B7223093B8226781EA01C80FD91F6883F4
:1019F00018968D919C9119972817390718F482E051
:101A000083830EC087E083831092BB2209C083E0EA
:101A1000838389EF8093BB2203C08BEF8093BB222B
:101A2000DF91CF9108951F920F920FB60F9211245C
:101A30002F933F934F935F936F937F938F939F93D6
:101A4000AF93BF93EF93FF9351DFFF91EF91BF915E
:101A5000AF919F918F917F916F915F914F913F9146
:101A60002F910F900FBE0F901F9018951F920F92FD
:101A70000FB60F9211242F933F934F935F936F9361
:101A80007F938F939F93AF93BF93EF93FF932EDF3B
:101A9000FF91EF91BF91AF919F918F917F916F9146
:101AA0005F914F913F912F910F900FBE0F901F901C
:101AB0001895009709F453C06115710509F451C0D8
:101AC000FB0132852091BA2202C031114CC0211194
:101AD000FCCF2FB7F89431E03093BA2230E830933E
:101AE000BB222FBF8093B1229093B2226093B32286
:101AF0007093B4221092B5221092B6221092B7229F
:101B00001092B8224093B922FB012081522F550F29
:101B100024813581232B11F4411103C0FC0156832C
:101B200003C05160FC015683EBEBF2E28081803808
:101B3000E9F3E091B122F091B22284818370813087
:101B400049F0A1EBB2E2ED91FC9111978481837091
:101B50008130C9F78091BB221092BA22089588EF94
:101B6000089588EF089586EF0895FC0160837183DE
:101B700042835383148A158A168A178A108E089511
:101B8000DC01ED91FC91119748634087ED91FC9148
:101B9000660F63870895FC01808D882351F0A08132
:101BA000B18182E019968C9386E0878B168A108E1D
:101BB000089581E0868B178AA081B18118968C9157
:101BC00018978B7F18968C93148A158A0190F08150
:101BD000E02D83E081870895FC01A081B1811896F2
:101BE0008C9118978B7F18968C93A081B1811A964F
:101BF0008C911A9780641A968C9381E0878B168A51
:101C00000895CF93DF93EC01E881F98180858460AA
:101C100080878C898830F8F4E881F98184859C89F3
:101C2000FE01E90FF11D8483EA81FB8109958C890E
:101C30008F5F8C8B888D882349F0E881F98182E061
:101C4000818786E08F8B1E8A188E0CC0E881F9810F
:101C500083E0818707C0E881F98186E0818782E09F
:101C60008F8B1E8ADF91CF910895FC01858988238F
:101C700071F0A081B1811A968C911A9784FF07C0E8
:101C800082E019968C9381E0878B168A0895858966
:101C9000883098F48589DF01A80FB11D1C968C91BE
:101CA000A081B1811C968C9385898F5F858B019073
:101CB000F081E02D83E081870895A081B18182E0E9
:101CC00019968C93878B168A0895DC01ED91FC910F
:101CD000228521FF02C0C9CF089593CF0895FC014A
:101CE000A081B1811A968C9182FF06C0148A158A50
:101CF00084E0878B168A089583FF06C0148A158AAC
:101D000083E0878B168A0895282F2074982F91746A
:101D1000913419F4CF013FCF0895222319F0CF0158
:101D20005BCF089588231CF4CF01CFCF089585E0C1
:101D3000878B168A0895811118C09091E823992302
:101D400089F09FB7F894E2E3F4E2208121502083E8
:101D50009FBF08C09FB7F894E2E3F4E220812F5FB1
:101D600020839FBF8093E82308959091E8239923CF
:101D700089F3F8CF0F93E8ECF4E080818F7D8083C6
:101D800080818F7D8083ECEBF3E202E0059310927B
:101D9000BE231092BF2300E2069300E40693E4EB17
:101DA000F3E200E2069300E4069310922D241092D1
:101DB0002E2410922F241092302410922B24109253
:101DC0002C241092A5230F9108950F9385E0809302
:101DD000A523EDEBF3E204E00593E5EBF3E204E089
:101DE00005930F9108950F9383E08093A52310929C
:101DF000BE231092BF23ECEBF3E202E006930F91B7
:101E00000895E0912D24F0912E24309709F0099542
:101E100008950F93CF93DF938091A523833019F416
:101E2000F0DFA8DF60C08091A1239091A223C09130
:101E30002B24D0912C24C81BD90B71F52091A323FE
:101E40003091A423820F931F8093A3239093A42304
:101E500020912724309128248217930721F0809124
:101E6000BC22882341F084E08093A523E4EBF3E2D5
:101E700002E0069338C0E0912F24F091302430978F
:101E800099F00995882381F01092A1231092A22342
:101E9000C0912B24D0912C24C034D10528F010926D
:101EA000BC22C0E4D0E003C081E08093BC22C09398
:101EB000BE23D093BF238091A1239091A223209190
:101EC000292430912A24280F391F2093C0233093CE
:101ED000C123C80FD91FC093A123D093A223ECEB39
:101EE000F3E202E00693DF91CF910F910895FC0198
:101EF0008181877090E0FC013197E730F10520F493
:101F0000E250FF4F0C94572788E090E0089580E25C
:101F100090E0089580E490E0089580E890E00895CE
:101F200080E091E0089580E092E008958FEF93E0E3
:101F3000089580E190E00895282F2F7030E0220F5F
:101F4000331F992787FD90958827990F881F992718
:101F5000820F931F02979C01220F331F220F331F02
:101F6000220F331F820F931F835C9C4D08950F93A4
:101F7000CF938091CC0480FF63C081E08093CC0438
:101F8000E4EBF3E200E80693ECEBF3E200E80693FF
:101F90008093CA04E4EBF3E200E106938091A52369
:101FA000882329F08350823008F42BDFE3DE809110
:101FB000B6239091B723089709F044C088E0E1E682
:101FC000F3E2A1E2B4E201900D928A95E1F7E8EC28
:101FD000F4E08081806280838081806280830E94BF
:101FE0005F05C82F811103C0F0DEC1E02CC08091D5
:101FF000212488236CF41092A3231092A42310921E
:10200000A1231092A22382E08093A52302DF1BC0AC
:102010002091272430912824232B11F4E4DE13C0CF
:102020001092A3231092A4231092A1231092A22312
:1020300081E08093A523E4EBF3E202E0069303C082
:10204000C0E001C0C1E08C2FCF910F910895BF92E5
:10205000CF92DF92EF92FF920F931F93CF93DF9374
:10206000B82E6ADFEC011B2D111F1127111F8B2DBC
:102070008F70E82EF12CEE0CFF1CE10EF11CC70155
:10208000880F991F880F991F880F991F9C012C5446
:102090003C4D7901C9012BDF6C01112309F45BC0B0
:1020A000D70116962D913C9117978D819E81280F0F
:1020B000391F2D833E838B819C8128173907C9F1F5
:1020C000FC01E21BF30B9F012115F4E03F0740F0F8
:1020D0002FEF33E0C901B6010E94F226281B390B0D
:1020E000888181FF0AC0C901B6010E94F22641E041
:1020F000892B09F040E0942F01C090E0888190FB8B
:1021000081F98883D70116961D921C921797129613
:102110002D933C93139729813A818D819E81820F63
:10212000931F14968D939C931597F70102E00693E5
:1021300098C0888181FF87C08D7F8883D7011696DC
:102140001D921C92179712961D921C921397F701DD
:1021500002E0069386C0D70112960D911C91139749
:10216000888182FF15C0E981FA812D813E818B81B2
:102170009C81B6010E94F226B0E4BB9EB0011124FE
:1021800063587D4DAC01CF01820F931F0E94BD2784
:102190002D813E81200F311F2D833E83EB81FC81F9
:1021A000E217F30710F4ED83FE83D70116968D91A5
:1021B0009C9117978017910709F045C08D819E81EA
:1021C000E817F90709F43FC0E81BF90BE115B4E083
:1021D000FB0748F0EFEFF3E0CF01B6010E94F226D3
:1021E000E81BF90B06C0CF01B6010E94F226E81BDE
:1021F000F90BD70112961D921C921397EC15FD0551
:1022000078F4888184608883B0E4BB9EC001112487
:1022100083589D4DF70184839583C682D7820FC072
:1022200029813A818D819E81820F931FD701149657
:102230008D939C9315971696ED93FC931797F70142
:1022400002E006930EC0888180FF0BC08E7F8883DA
:10225000EF81F885309729F06D817E814B2D80E0EC
:102260000995DF91CF911F910F91FF90EF90DF9033
:10227000CF90BF900895CF93CFB7F89481E05BDD06
:10228000EAECF4E080E4808380E28083E1ECF4E037
:10229000808181608083A9ECB4E08C9182608C9312
:1022A000E8ECF4E08081806480838C9181608C9381
:1022B000808180688083CFBFCF910895CF93DF93D3
:1022C000C0E6D0E0188280E33CD4E0ECF4E080810A
:1022D0008064808381E08883CFB7F8941092B5231F
:1022E0001092BD231092C5231092CD231092D523B6
:1022F0001092DD23EDE3F3E280818E7F8083E6E4BC
:10230000F3E280818E7F8083EFE4F3E280818E7F31
:102310008083E8E5F3E280818E7F80836AE170E06C
:1023200082E045D48F3F19F08093FA0403C08FE117
:102330008093FA046BE170E082E039D48F3F19F0AA
:102340008093FB0403C08FE18093FB04E0ECF4E096
:1023500080818260808380818068808380818061C9
:10236000808384EB93E2868397838081806280837D
:102370008FEF8093C504E8ECF4E080818160808376
:102380001092E8238FB7F894E6E3F4E290819F5F20
:1023900090838FBF70DFCFBFDF91CF91089580E032
:1023A00008958093C30408958091C3040895809193
:1023B000E4239091E523089580E090E008958093D0
:1023C000292490932A2460932B2470932C2408951D
:1023D000E82FEF70F0E0EE0FFF1F992787FD909533
:1023E0008827990F881F9927E80FF91FEE0FFF1F05
:1023F000EE0FFF1FEE0FFF1FEC54FC4D8181807C20
:1024000009F043C06370613029F010F480E403C028
:1024100080E801C080EC40385105E1F050F44032D2
:102420005105A1F04034510599F04031510561F456
:1024300019C0411592E0590789F04F3F93E05907C1
:1024400079F04115514041F020E00DC022E00BC071
:1024500023E009C024E007C025E005C026E003C052
:1024600027E001C021E0118296E09083822B8183D6
:102470008181807C803C21F481818770873039F0B4
:1024800081818062818381E0089580E0089581E008
:102490000895E82FEF70F0E0EE0FFF1F992787FDFA
:1024A00090958827990F881F9927E80FF91FEE0F3D
:1024B000FF1FEE0FFF1FEE0FFF1FEC54FC4D81813D
:1024C00082FB882780F90895E82FEF70F0E0EE0F87
:1024D000FF1F282F332727FD30952227330F221F78
:1024E0003327E20FF31FEE0FFF1FEE0FFF1FEE0F5C
:1024F000FF1FEC54FC4D918192FF0EC091819B7F98
:1025000091831ADDFC01808180FF06C08E7F80836D
:102510000780F085E02D099581E008957F928F92E4
:102520009F92AF92BF92CF92DF92EF92FF920F9362
:102530001F93CF93DF93982E862E5A016901FCDCFE
:102540007C01792C771C7724771CC92DCF70D0E0C3
:10255000CC0FDD1FC70DD11DCC0FDD1FCC0FDD1F34
:10256000CC0FDD1FCC54DC4D8981807C09F44CC03C
:102570008981807C803C19F0898182FD47C08FB7BA
:10258000F894F701908190FF03C08FBF712C3FC07A
:10259000F7019081916090838FBFF701A182B28291
:1025A000C382D4821582168207831087811006C0E9
:1025B00091E0C114D10419F090E001C091E0F7015D
:1025C000808190FB81F98B7F8083772019F01E82B8
:1025D0001F8215C08981807C803C69F4CE0187DC34
:1025E000BC01C6010E94F226892B29F0F7018081E7
:1025F0008E7F80830CC01A821B821E821F82892DCF
:1026000026DD7724739403C0712C01C0712C872DB3
:10261000DF91CF911F910F91FF90EF90DF90CF90BE
:10262000BF90AF909F908F907F900895FF920F93EF
:102630001F93CF93DF93182FF82EFF1CFF24FF1C4E
:10264000C82FCF70D0E0CC0FDD1FCF0DD11DCC0F28
:10265000DD1FCC0FDD1FCC0FDD1FCC54DC4D6CDC3F
:10266000DC01FE0102E005938C9180FF12C08E7F99
:102670008C931796ED91FC911897309751F0FF20AD
:1026800019F06E817F8102C06A817B81412F81E0D8
:102690000995DF91CF911F910F91FF900895CF93EE
:1026A000C82FC4DFEC2FEF70F0E0EE0FFF1F8C2F70
:1026B000992787FD90958827990F881F9927E80FFC
:1026C000F91FEE0FFF1FEE0FFF1FEE0FFF1FEC5461
:1026D000FC4D1182CF9108950F93E82FEF70F0E039
:1026E000EE0FFF1F282F332727FD30952227330FAA
:1026F000221F3327E20FF31FEE0FFF1FEE0FFF1F06
:10270000EE0FFF1FEC54FC4D91819460918301E02A
:1027100006938CDF81E00F9108951F920F920FB600
:102720000F9211240F932F933F934F935F936F93C7
:102730007F938F939F93AF93BF93EF93FF9380917A
:10274000CB04882334F480E88093CA040E943005C7
:1027500088C08091CB0482FF20C084E08093CA04AB
:102760008091BC2386FF7DC08091CC0481FD79C01F
:10277000FEDB811176C08091A523813011F433DB1B
:1027800070C0843009F06DC0EDEBF3E204E0059316
:10279000E5EBF3E204E0059364C08091CB0481FF94
:1027A0005BC082E08093CA048091B42386FF59C045
:1027B0008091CC0481FD55C0DADB811152C080913B
:1027C000A523823041F484E08093A523E4EBF3E277
:1027D00002E0069346C0833009F043C0EDEBF3E21C
:1027E00004E00593E5EBF3E204E005933AC080E1F1
:1027F0008093CA0481E01ADF81E818DF0E9409058E
:102800001092C304E5EBF3E2108296E09093B423B8
:1028100083E48083EDEBF3E210829093BC2380830A
:1028200081E693E28093B8239093B923A3DA19C089
:102830008091CB0486FF06C080E48093CA0480E0C8
:102840007ADA0FC08091CB0485FF0BC080E28093C1
:10285000CA0481E070DA05C08091CB0484FFE8CF20
:10286000C6CFFF91EF91BF91AF919F918F917F91D3
:102870006F915F914F913F912F910F910F900FBEEC
:102880000F901F9018951F920F920FB60F92112460
:102890000F931F932F933F934F935F936F937F9368
:1028A0008F939F93AF93BF93CF93DF93EF93FF9358
:1028B0008091CC0481FD03C05ADB8111B9C082E054
:1028C0008093CC048091C5048195880FE4EBF3E2FA
:1028D000E81BF10920813181245B3342369527952D
:1028E0003695279536952795822F869520FF02C02D
:1028F00090E801C090E0890FE82FEF70F0E0EE0F54
:10290000FF1F282F332727FD30952227330F221F43
:102910003327E20FF31FEE0FFF1FEE0FFF1FEE0F27
:10292000FF1FEC54FC4D908195FF82C000E206939E
:10293000811179C08091A523843019F462DA1ADA02
:1029400077C0C091B623D091B72380912B2490916A
:102950002C240091A1231091A22398012C0F3D1F3C
:102960008217930718F4EC01C01BD10B8091292426
:1029700090912A24AE0161E673E2800F911F0E94BC
:10298000BD270C0F1D1F0093A1231093A223C03459
:10299000D10569F48091A3239091A423800F911F06
:1029A00020912724309128248217930788F00093E0
:1029B0002B2410932C24E0912F24F0913024309775
:1029C00029F00995811102C000DA32C00CDA30C05A
:1029D00080912B2490912C2408171907F9F4E09189
:1029E0002F24F0913024309711F4EFD921C00995AC
:1029F000811102C0EAD91CC02091A3233091A423E5
:102A00008091A1239091A223820F931F8093A323EF
:102A10009093A4231092A1231092A223E4EBF3E25B
:102A200002E0069305C0803811F4F3D901C00FDB32
:102A3000FF91EF91DF91CF91BF91AF919F918F91D6
:102A40007F916F915F914F913F912F911F910F91C6
:102A50000F900FBE0F901F901895CF93DF9300D06B
:102A600000D0CDB7DEB78FEF8093700080937100F8
:102A7000809372008093730080937400809375003C
:102A8000809376006CE170E082E091D08A836DE102
:102A900070E082E08CD0898389819A81019621F44B
:102AA00080E493E289839A8389819A818B839C83D2
:102AB000E0E6F0E082838C8183838FB7F894E0E5D1
:102AC000F0E09081926090838FBF818181FFFDCF84
:102AD0008FB7F894A0E5B0E016969C911697997F71
:102AE00016969C931697E0E6F0E090E895839BEBB2
:102AF000968316969C911697946016969C93908157
:102B0000916090838FBF61E080E490E05AD08FB7EE
:102B1000F894E0E5F0E090819E7F90838FBF24964B
:102B2000CDBFDEBFDF91CF9108959FB7F894E82F16
:102B3000F0E0E059FF4F60958081682360839FBF7C
:102B40000895863011F468E101C060E0E0E5F0E04E
:102B5000818181FD24C08FB7F89490819260908329
:102B60008FBF818181FFFDCF8FB7F894A0E5B0E0E2
:102B700016969C911697997F16969C931697E0E669
:102B8000F0E090E895839BEB968316969C911697C0
:102B9000946016969C939081916090838FBF636040
:102BA00084E490E00ED060E480E0BFCF08954091CF
:102BB000CA01E62FF72F8093CA0184914093CA017E
:102BC00008951BBEFC0128ED24BF60830895CF92B9
:102BD000DF92EF92FF92CF93DF93EC016B01E12C38
:102BE000F12C60E07CE68CED92E0A70196010E945A
:102BF0001927CA01B9012FEF3FEF40E050E00E94D2
:102C000019272115310529F481E08C8321E030E07A
:102C10002DC02230310528F482E08C8322E030E0A0
:102C200025C02430310528F483E08C8324E030E093
:102C30001DC02830310528F484E08C8328E030E082
:102C400015C02034310528F485E08C8320E430E081
:102C50000DC02F3F310509F028F486E08C8320E079
:102C600031E004C087E08C8320E034E040E050E0B5
:102C700060E07CE68CED92E00E941927CA01B90160
:102C8000A70196010E9419272D833E832436310522
:102C900018F41C821D821E82DF91CF91FF90EF906D
:102CA000DF90CF9008950F931F93CF93DF93EC01A4
:102CB00089016230B9F128F4662351F06130E9F0FE
:102CC0006FC0633009F443C0643009F455C068C074
:102CD00080E098E088839983E0E4F6E0508121E089
:102CE00030E08FEF840FB90102C0660F771F8A951D
:102CF000E2F7CB01852B808353C080E498E0888382
:102D00009983E0E4F6E0508121E030E083E0840F35
:102D1000B90102C0660F771F8A95E2F7CB01852BB8
:102D200080833EC080E099E088839983E0E6F6E006
:102D3000508121E030E08FEF840FB90102C0660FAF
:102D4000771F8A95E2F7CB01852B808329C080E429
:102D500099E088839983E0E6F6E0508121E030E055
:102D600083E0840FB90102C0660F771F8A95E2F7EE
:102D7000CB01852B808314C080E09AE088839983FF
:102D8000E0E8F6E0508121E030E08FEF840FB901F8
:102D900002C0660F771F8A95E2F7CB01852B8083EF
:102DA0004A83423061F018F4413031F010C04330B2
:102DB00049F0443051F00BC080E18B8308C080E2C1
:102DC0008B8305C080E48B8302C080E88B8388817D
:102DD00099810E94240CE881F9818181887F836038
:102DE00081831D821E821C82E881F9818081807F1F
:102DF0008083B801CE01EBDEDF91CF911F910F915F
:102E00000895CF93DF93EC01AD81BE81262F30E092
:102E10000E945D2724E630E040E050E00E94192740
:102E20008A81E881F981E6FD17C0823061F018F4EB
:102E3000813031F01BC0833049F0843051F016C02E
:102E400020AF31AF13C022AF33AF10C024AF35AFC6
:102E50000DC026AF37AF0AC0813019F0823021F0A3
:102E600005C020AF31AF02C022AF33AF8D819E814C
:102E7000E881F98186A397A38B81E881F981E6FD3A
:102E800004C09181892B818304C091818073892B37
:102E90008183E881F9818081807F9C81892B808377
:102EA000DF91CF9108951092E3241092E4241092C0
:102EB0005D2410925E241092542410925524109296
:102EC00038241092392410924424109245241092F0
:102ED000E7241092E82410924A2410924B24109276
:102EE00046241092472410925F2410926024089583
:102EF0008F929F92AF92BF92CF92DF92EF92FF920A
:102F00000F931F93CF93DF930091E424053008F4CF
:102F100083C18FEF800F803208F053C0C02ED12CB8
:102F20001C141D040CF07BC1E3E6F4E283EC94E294
:102F30007601AF0197012D533B4D71917B3078F0B5
:102F4000EC01DC01A054B1090C910B3040F09096DB
:102F50001C911B3020F098806AE0691528F00196DA
:102F60008217930751F75EC1772309F45EC10023EE
:102F700009F45EC1112309F45EC1992009F45EC110
:102F8000C6010197992334F1F701ED59FB4DDC019E
:102F9000AD57BB4D319760816B3070F08C918B30A9
:102FA00058F0EF01C05CDF4F98819B3028F0A0966D
:102FB00088802AE02815B8F01197E417F50751F733
:102FC0000EC0812C90E080E060E0912C10E000E0E9
:102FD00070E009C0812C90E080E060E004C0812CAA
:102FE00090E080E060E0A72EB12CC02ED12CC12F44
:102FF000D0E0292D30E070E0482F50E0E92EF12C90
:10300000082D10E0FB01E41BF50B0F2EF4E69F2EBC
:10301000F02D9E9EC0019F9E900D1124640F751F80
:103020000E940627FB01A5014C195D09949EC00171
:10303000959E900D1124B5016C0D7D1D0E940627F3
:10304000E61BF70BA701401B510B949EC001959EF8
:10305000900D1124B701600F711F0E9406278B018C
:10306000AE01421B530B949EC001959E900D1124FE
:10307000BE01620F731F0E940627C801861B970BB3
:10308000BC0120915D2430915E242E0F3F1F2093C0
:103090005D2430935E248091542490915524860FB2
:1030A000971F8093542490935524223331053CF08C
:1030B00021E030E020933824309339240EC02F3C97
:1030C0003F4F3CF42FEF3FEF2093382430933924C7
:1030D00004C01092382410923924823391053CF0B8
:1030E00081E090E080934424909345240EC08F3C6F
:1030F0009F4F3CF48FEF9FEF80934424909345249F
:1031000004C0109244241092452480913824909158
:103110003924892B09F04FC0809144249091452493
:10312000892B09F048C0CF014396879708F089C0E2
:10313000CB014396879708F087C0309769F46115F3
:10314000710551F48091E7249091E82401968093D1
:10315000E7249093E82409C080914A2490914B245D
:10316000019680934A2490934B248091E724909178
:10317000E8240A970CF46BC080914A2490914B2468
:1031800002970CF467C0EF2B51F4672B09F065C070
:1031900081E090E080934624909347246CC0672B95
:1031A00009F45EC082E090E0809346249093472427
:1031B00081E090E060C0CF014396879708F053C04C
:1031C000CB014396879708F051C0EF2B59F4672B3A
:1031D00049F48091E7249091E82401968093E724B4
:1031E0009093E8248091E7249091E8240A970CF4C6
:1031F00040C0109238241092392410924424109226
:10320000452410925D2410925E2410925424109252
:10321000552480E090E02FC080E090E02CC080E05A
:1032200090E029C080E090E026C080E090E023C0DC
:1032300080E090E020C080E090E01DC080E090E061
:103240001AC080E090E017C080E090E014C080E0F9
:1032500090E011C080E090E00EC081E090E00BC0F3
:1032600081E090E008C080E090E005C080E090E060
:1032700002C080E090E0DF91CF911F910F91FF900D
:10328000EF90DF90CF90BF90AF909F908F90089578
:1032900080914624909147248130910549F485E03E
:1032A00090E080935F249093602481E090E0089503
:1032B000029749F486E090E080935F249093602425
:1032C00081E090E0089580913824909139248F3FD7
:1032D0002FEF920779F42091442430914524232B39
:1032E000C9F583E090E080935F249093602481E0AF
:1032F00090E008958130910581F42091442430912B
:103300004524232B09F058C084E090E080935F248B
:103310009093602481E090E008950097D9F4209183
:103320004424309145242130310549F482E090E075
:1033300080935F249093602481E090E008952F3F74
:103340003F4F09F068C081E090E080935F24909344
:10335000602408958F3F2FEF920771F580914424E8
:1033600090914524019709F05AC020915D24309135
:103370005E2433231CF43195219531098091542426
:103380009091552499231CF4919581959109821768
:1033900093074CF483E090E080935F249093602443
:1033A00081E090E0089582E090E080935F24909324
:1033B000602481E090E008958130910561F580916D
:1033C000442490914524019609F057C020915D2432
:1033D00030915E2433231CF431952195310980917D
:1033E00054249091552499231CF491958195910929
:1033F000821793074CF484E090E080935F249093CD
:10340000602481E090E0089581E090E080935F2463
:103410009093602408958F3F2FEF920761F580917C
:10342000442490914524019609F054C020915D24D4
:1034300030915E2433231CF431952195310980911C
:1034400054249091552499231CF4919581959109C8
:10345000821793074CF483E090E080935F2490936D
:10346000602481E090E0089581E090E080935F2403
:10347000909360240895019781F580914424909160
:103480004524019769F520915D2430915E24332312
:103490001CF4319521953109809154249091552443
:1034A00099231CF4919581959109821793074CF407
:1034B00084E090E080935F249093602481E090E02A
:1034C000089582E090E080935F249093602481E0EF
:1034D00090E0089580E090E0089580E090E0089505
:1034E00080E090E00895CF93DF93CDB7DEB72B97C0
:1034F000CDBFDEBFFE0131969BE0DF011D929A95A4
:10350000E9F799E399838A8381E090E08D839E8334
:103510006F83788789879A8741E0BF0180EA94E0CA
:103520000E94590D21E030E0882311F020E030E0C6
:10353000C9012B96CDBFDEBFDF91CF910895CF9308
:10354000DF931F92CDB7DEB7BE016F5F7F4F80E87C
:10355000CADF892B11F0898101C08FEF0F90DF91B5
:10356000CF910895CF93DF931F92CDB7DEB7BE0101
:103570006F5F7F4F8FEAB7DF892B39F0298181E0B8
:1035800090E020FD04C080E002C08FEF90E00F903B
:10359000DF91CF9108950F931F93CF93DF93CDB712
:1035A000DEB72B97CDBFDEBF042F152FFE0131965E
:1035B0009BE0DF011D929A95E9F799E399838A834D
:1035C00021E030E02D833E836F83788749875A87D7
:1035D00041E0BF0180EA94E00E94590D811103C0CF
:1035E000802F912F02C08FEF9FEF2B96CDBFDEBFB4
:1035F000DF91CF911F910F9108952F923F925F928B
:103600006F927F928F929F92AF92BF92CF92DF92F2
:10361000EF92FF920F931F93CF93DF93CDB7DEB757
:10362000C258D109CDBFDEBF19829CDF009709F4D3
:10363000B0C085DF817409F4A4C08E010E571F4FFE
:103640006894662467F80F2EF9EA7F2EF02D0F2E6E
:10365000F3E08F2EF02D912CA02EB12E0F2EF3EE35
:10366000CF2EF4E2DF2EF02D0F2EF4EEEF2EF4E24B
:10367000FF2EF02D862D972DA82DB92D0197A1098C
:10368000B1090097A105B105C9F76A2D7B2D8FEA15
:103690002ADF892B09F478C0D8018C9180FF5DC0A6
:1036A000BE016F5F7F4F8EEA1EDF892B09F46FC06A
:1036B00049814423F9F250E0440F551F440F551F30
:1036C000BE016E5F7F4F8CEF66DF843098F29927E2
:1036D00018161906CCF5F6016081D7015C90FE0141
:1036E00035960197AC01569547955695479571E0EB
:1036F000760F740FA62FB0E0CD018D599B4D1C01A4
:10370000CF010397DC018C91D1018C93CF010297FB
:10371000DC018C91D10190968C93C101805C9F4F0C
:103720009F0121503109D9012C91DC012C9380811A
:1037300090968C936F5F34966713DCCF5394F601A9
:103740007083450DD7014C93D3DB892B09F0A0DDA5
:10375000F6011082D7011C928DCF80E899EAA3E090
:10376000B0E00197A109B1090097A105B105C9F71A
:103770008FDD00915F241091602495DB802F912FC5
:1037800008C080E090E005C08FEF90E002C08FEFAE
:1037900090E0CE57DF4FCDBFDEBFDF91CF911F91BD
:1037A0000F91FF90EF90DF90CF90BF90AF909F90E0
:1037B0008F907F906F905F903F902F900895E82FAB
:1037C000E695E695E69540E2E49FF0011124FA5F64
:1037D000877021E030E0A90102C0440F551F8A958F
:1037E000E2F741830895E82FE695E695E69540E2F5
:1037F000E49FF0011124FA5F672B59F0877021E0F4
:1038000030E0A90102C0440F551F8A95E2F74583B5
:103810000895877021E030E0A90102C0440F551FD0
:103820008A95E2F746830895E82FE695E695E695B2
:1038300060E2E69FF0011124FA5F4085877021E085
:1038400030E0B90102C0660F771F8A95E2F7242F96
:10385000262381E090E011F480E090E008959C013F
:103860002150310923303105A8F02350310922308D
:10387000310598F0225031092430310588F0245068
:1038800031092230310578F00C97049778F484E000
:1038900090E0089580E090E0089581E090E0089540
:1038A00082E090E0089583E090E0089581E090E068
:1038B00008958130910541F19C012D7F243031051F
:1038C00031F18A30910531F18C30910531F182303E
:1038D000910531F12530310531F18B30910531F110
:1038E0008D30910531F18330910531F188309105AA
:1038F00031F18E30910531F18930910531F10F9719
:1039000039F584E090E0089581E090E0089581E049
:1039100090E0089581E090E0089581E090E00895BE
:1039200082E090E0089582E090E0089582E090E0E7
:10393000089582E090E0089583E090E0089583E0A8
:1039400090E0089583E090E0089584E090E0089589
:1039500081E090E008951F93CF93DF93EA01809375
:10396000482460933A242BDF80913A2428DFCE014B
:10397000A0DF182FCE0173DF20E137E2412F682F3F
:103980008DE494E290D960E08DE494E23ADADF913C
:10399000CF911F9108951F93CF93DF93EA018093F6
:1039A000432460934C240BDF80914C2408DFCE012C
:1039B00080DF182FCE0153DF20E137E2412F682F3F
:1039C00086E594E270D960E086E594E21ADADF9148
:1039D000CF911F910895CF93DF93EC01992384F445
:1039E00061E070E080914824FEDE60E070E080914C
:1039F0003A24F9DE6C2F61958DE494E202DA0EC070
:103A000060E070E080914824EEDE61E070E080913B
:103A10003A24E9DE6C2F8DE494E2F3D9DF91CF9163
:103A20000895CF93DF93EC01992384F461E070E073
:103A300080914324D8DE60E070E080914C24D3DE96
:103A40006C2F619586E594E2DCD90EC060E070E0F1
:103A500080914324C8DE61E070E080914C24C3DE95
:103A60006C2F86E594E2CDD9DF91CF9108950E9425
:103A70002D1503D083D2AEC20895E0E0F6E081E0D8
:103A8000818382E0818384E0818388E0818308955B
:103A90008130910531F08230910569F0892B79F4FC
:103AA00005C081E0E0E0F6E08583089581E0E0E094
:103AB000F6E08683089581E0E0E0F6E087830895EC
:103AC0008130910531F08230910569F0892B79F4CC
:103AD00005C082E0E0E0F6E08583089582E0E0E062
:103AE000F6E08683089582E0E0E0F6E087830895BB
:103AF0008130910531F08230910569F0892B79F49C
:103B000005C084E0E0E0F6E08583089584E0E0E02D
:103B1000F6E08683089584E0E0E0F6E08783089588
:103B20008130910531F08230910569F0892B79F46B
:103B300005C088E0E0E0F6E08583089588E0E0E0F5
:103B4000F6E08683089588E0E0E0F6E08783089554
:103B5000AF92BF92CF92DF92EF92FF920F931F939B
:103B6000CF93DF9300D0CDB7DEB782E390E08983B7
:103B70009A8389819A81843691050CF0F2C181E0A3
:103B800090E086DFE981FA819F2F990F990BA12C94
:103B90000F2EFCE6BF2EF02D0F2EFCEDCF2EF02DBC
:103BA0006894DD24D1F8E12CF12C00E010E02E2FF8
:103BB0003F2F492F592F692F792F892F0E946C276A
:103BC00029513C4F4F4F5F4F6F4F7F4F8F4F9F4F4C
:103BD000DFD720E030E84BEB55E4CAD636D7F22FDA
:103BE000E32F8F2F9E2FA42FB52F0197A109B10985
:103BF0000097A105B105C9F781E090E061DFE98197
:103C0000FA819F2F990F990BA12C0F2EFCE6BF2E46
:103C1000F02D0F2EFCEDCF2EF02D6894DD24D1F881
:103C2000E12CF12C00E010E02E2F3F2F492F592FCF
:103C3000692F792F892F0E946C2729513C4F4F4FB4
:103C40005F4F6F4F7F4F8F4F9F4FA2D720E030E8DD
:103C50004BEB55E48DD6F9D6F22FE32F8F2F9E2F05
:103C6000A42FB52F0197A109B1090097A105B105AE
:103C7000C9F781E090E03CDFE981FA819F2F990F3D
:103C8000990BA12C0F2EFCE6BF2EF02D0F2EFCED74
:103C9000CF2EF02D6894DD24D1F8E12CF12C00E03A
:103CA00010E02E2F3F2F492F592F692F792F892F61
:103CB0000E946C2729513C4F4F4F5F4F6F4F7F4FF2
:103CC0008F4F9F4F65D720E030E84BEB55E450D63F
:103CD000BCD6F22FE32F8F2F9E2FA42FB52F019745
:103CE000A109B1090097A105B105C9F781E090E0EC
:103CF00017DFE981FA819F2F990F990BA12C0F2EC5
:103D0000FCE6BF2EF02D0F2EFCEDCF2EF02D68948B
:103D1000DD24D1F8E12CF12C00E010E02E2F3F2F14
:103D2000492F592F692F792F892F0E946C272951EC
:103D30003C4F4F4F5F4F6F4F7F4F8F4F9F4F28D755
:103D400020E030E84BEB55E413D67FD6F22FE32F7B
:103D50008F2F9E2FA42FB52F0197A109B10900978E
:103D6000A105B105C9F780E090E092DEE981FA8112
:103D70009F2F990F990BA12C0F2EFCE6BF2EF02D33
:103D80000F2EFCEDCF2EF02D6894DD24D1F8E12C20
:103D9000F12C00E010E02E2F3F2F492F592F692FD3
:103DA000792F892F0E946C2729513C4F4F4F5F4F2D
:103DB0006F4F7F4F8F4F9F4FEBD620E030E84BEB9C
:103DC00055E4D6D542D6F22FE32F8F2F9E2FA42F66
:103DD000B52F0197A109B1090097A105B105C9F750
:103DE00080E090E06DDEE981FA819F2F990F990BB9
:103DF000A12C0F2EFCE6BF2EF02D0F2EFCEDCF2EAA
:103E0000F02D6894DD24D1F8E12CF12C00E010E0D5
:103E10002E2F3F2F492F592F692F792F892F0E943D
:103E20006C2729513C4F4F4F5F4F6F4F7F4F8F4F44
:103E30009F4FAED620E030E84BEB55E499D505D640
:103E4000F22FE32F8F2F9E2FA42FB52F0197A109BB
:103E5000B1090097A105B105C9F780E090E048DEFF
:103E6000E981FA819F2F990F990BA12C0F2EFCE667
:103E7000BF2EF02D0F2EFCEDCF2EF02D6894DD24FB
:103E8000D1F8E12CF12C00E010E02E2F3F2F492F2C
:103E9000592F692F792F892F0E946C2729513C4F68
:103EA0004F4F5F4F6F4F7F4F8F4F9F4F71D620E027
:103EB00030E84BEB55E45CD5C8D5F22FE32F8F2FBC
:103EC0009E2FA42FB52F0197A109B1090097A10535
:103ED000B105C9F780E090E023DEE981FA819F2FE8
:103EE000990F990BA12C0F2EFCE6BF2EF02D0F2E53
:103EF000FCEDCF2EF02D6894DD24D1F8E12CF12CCF
:103F000000E010E02E2F3F2F492F592F692F792FD6
:103F1000892FE2D729513C4F4F4F5F4F6F4F7F4F53
:103F20008F4F9F4F35D620E030E84BEB55E420D53E
:103F30008CD5F22FE32F8F2F9E2FA42FB52F019713
:103F4000A109B1090097A105B105C9F789819A8135
:103F50000F9689839A8389819A81843691050CF41E
:103F60000ECE0F900F90DF91CF911F910F91FF9088
:103F7000EF90DF90CF90BF90AF90089588E0E0E49D
:103F8000F6E082830895CF93C82F8A3021F48DE024
:103F900090E00E9418048C2F992787FD90950E942D
:103FA000180480E090E0CF9108950F931F93CF9372
:103FB000DF938C010E944A038823E1F30E94960359
:103FC000EC01B801E0DFCE019927DF91CF911F917D
:103FD0000F91089587E0E0EAF0E0828378940E94F0
:103FE00006050E943B118CE790E280936427909332
:103FF000652780936227909363270895E82FE695BD
:10400000E695E69590E2E99FF0011124E05FF94F13
:104010008770E80FF11D8FB7F894908197709083A7
:104020009081692B60838FBF089580914D278823ED
:1040300019F08130B1F035C020915127809150277F
:1040400090E0922B809317249093182420914F276F
:1040500080914E2790E0922B809315249093162404
:1040600020C090911B2480911C249093552780930D
:1040700056279091192480911A2490935727809362
:10408000582780911D248093592780911E24809366
:104090005A2790911F248091202490935B2780932E
:1040A0005C2782E090E0F4CC08955CDA892B69F11A
:1040B000A4DA8330910571F034F48130910591F0E8
:1040C0000297A1F01FC085309105A1F03CF0069742
:1040D000A9F018C080E291E259C7089584E291E204
:1040E00055C708958AE291E251C7089580E391E2AD
:1040F0004DC7089587E391E249C708958DE391E2A2
:1041000045C7089582E491E241C708951F920F9236
:104110000FB60F9211242F933F934F935F936F939A
:104120007F938F939F93AF93BF93EF93FF93BDDFE5
:1041300082E090E0C5DCFF91EF91BF91AF919F913C
:104140008F917F916F915F914F913F912F910F9040
:104150000FBE0F901F9018951F920F920FB60F92DF
:1041600011242F933F934F935F936F937F938F937C
:104170009F93AF93BF93EF93FF9382E090E088DC2F
:10418000FF91EF91BF91AF919F918F917F916F912F
:104190005F914F913F912F910F900FBE0F901F9005
:1041A00018954F925F926F927F928F929F92AF92EB
:1041B000BF92CF92DF92EF92FF92CF93DF9300D026
:1041C00000D0CDB7DEB76B017C0129833A834B83E6
:1041D0005C83F894653925E072078105910558F4F0
:1041E0006115710581059105B1F06639710581058B
:1041F000910550F010C00F2EF4E9CF2EF5E0DF2E20
:10420000E12CF12CF02D07C00F2EF6E9CF2ED12C8A
:10421000E12CF12CF02DD701C60129813A814B8187
:104220005C81821B930BA40BB50B8093112490939C
:104230001224A0931324B093142478944090112452
:1042400050901224609013247090142480910924BB
:1042500090910A24A0910B24B0910C24A301920107
:10426000281B390B4A0B5B0BCA01B90156D42CEA47
:1042700035EC47E258E353D59B01AC0160910D2426
:1042800070910E2480910F249091102408D34B013B
:104290005C01C301B20141D422E539E44DE15BE3A5
:1042A0003ED59B01AC01C501B401FAD24B015C01C2
:1042B0006093052470930624809307249093082428
:1042C0008091012490910224A0910324B0910424B0
:1042D000840D951DA61DB71D809301249093022483
:1042E000A0930324B0930424C501B401E3D36093E5
:1042F000FF237093002420E030E046EC52E4C50137
:10430000B40109D518166CF480E090E0A6ECB2E494
:104310008093052490930624A0930724B093082447
:1043200010C020E030E0A901C501B4011DD38823ED
:1043300044F410920524109206241092072410923F
:104340000824F89449815A814093192450931A24DF
:104350008091FF2380931E247894CD28CE28CF28E7
:1043600021F480E090E037DB05C08091FF2390913D
:10437000002431DB8091052490910624A09107242C
:10438000B091082480930D2490930E24A0930F24C1
:10439000B09310248091112490911224A0911324A1
:1043A000B09114248093092490930A24A0930B24A1
:1043B000B0930C242496CDBFDEBFDF91CF91FF9048
:1043C000EF90DF90CF90BF90AF909F908F907F90B5
:1043D0006F905F904F9008954F925F926F927F928F
:1043E0008F929F92AF92BF92CF92DF92EF92FF9205
:1043F000CF93DF9300D000D0CDB7DEB76B017C0147
:1044000029833A834B835C83F894653925E07207EE
:104410008105910558F46115710581059105B1F08B
:10442000663971058105910550F010C00F2EF4E931
:10443000CF2EF5E0DF2EE12CF12CF02D07C00F2E52
:10444000F6E9CF2ED12CE12CF12CF02DD701C601AD
:1044500029813A814B815C81821B930BA40BB50BA4
:104460008093FB239093FC23A093FD23B093FE2322
:1044700078944090FB235090FC236090FD23709033
:10448000FE238091F3239091F423A091F523B09122
:10449000F623A3019201281B390B4A0B5B0BCA01BF
:1044A000B9013BD32CEA35EC47E258E338D49B0101
:1044B000AC016091F7237091F8238091F9239091DA
:1044C000FA23EDD14B015C01C301B20126D322E5F1
:1044D00039E44DE15BE323D49B01AC01C501B40198
:1044E000DFD14B015C016093EF237093F023809345
:1044F000F1239093F2238091EB239091EC23A091F0
:10450000ED23B091EE23840D951DA61DB71D80935C
:10451000EB239093EC23A093ED23B093EE23C501FE
:10452000B401C8D26093E9237093EA2320E030E01D
:1045300046EC52E4C501B401EED318166CF480E0E9
:1045400090E0A6ECB2E48093EF239093F023A09345
:10455000F123B093F22310C020E030E0A901C5019F
:10456000B40102D2882344F41092EF231092F02376
:104570001092F1231092F223F89449815A814093CA
:10458000192450931A248091E92380931E2480914A
:104590001F249091202401968D3D5FEF950728F40C
:1045A00080931F249093202404C010921F24109203
:1045B00020247894CD28CE28CF2821F480E090E0E4
:1045C00030DA05C08091E9239091EA232ADA8091BC
:1045D000EF239091F023A091F123B091F2238093E7
:1045E000F7239093F823A093F923B093FA238091B3
:1045F000FB239091FC23A091FD23B091FE23809397
:10460000F3239093F423A093F523B093F6232496F9
:10461000CDBFDEBFDF91CF91FF90EF90DF90CF90C5
:10462000BF90AF909F908F907F906F905F904F90D2
:1046300008951F920F920FB60F9211242F933F935C
:104640004F935F936F937F938F939F93AF93BF939A
:10465000EF93FF9389E497E20E946F0EFF91EF9131
:10466000BF91AF919F918F917F916F915F914F918A
:104670003F912F910F900FBE0F901F90189587E0DC
:10468000E0EAF0E0828360E485E00E94951545E170
:1046900050E260EA74E089E497E20E94B50D40E8D8
:1046A00060E689E497E20E94C00D80E090E0FC01A2
:1046B000E75BF84D1482019688309105C1F7789434
:1046C0000895CF93DF93CDB7DEB72897CDBFDEBF78
:1046D000CED93EDA41E050E065E084E03CD942E0EA
:1046E00050E067E086E057D900E416E080E4F80186
:1046F000828380E8828368E186E180DC68E187E18B
:104700007DDC80E1F801828380E2828368E184E1DC
:1047100075DC68E185E172DCB2DF80E498E00E943C
:10472000240C8FEF9FEF809366089093670887E0D3
:104730008093400800E618E0F8011082118280E0C2
:1047400090E049D980E090E06CD9F801E080F180F8
:104750001A82198200E010E0412C512C612C712C3E
:104760001D821E821B821C820F2EF0E62F2EF8E087
:104770003F2EF02DEF82F88602C0F1E0FA832B8104
:104780003C814901A12CB12C8D819E816C01E12CD1
:10479000F12C07331105A0F06091152470911624B7
:1047A00080E090E0A5019401FCDC609117247091F9
:1047B000182480E090E0A70196010EDE00E010E0F2
:1047C000F101808191812F8138858217930709F348
:1047D0000F5F1F4F808191818F8398879FEF691AA8
:1047E000790AEFEF4E1A5E0AF981F130F9F486E1A9
:1047F0001BD8892BD9F428EB62162BE0720640F007
:104800000F2EF8EB6F2EF02D0F2EFBE07F2EF02DEC
:10481000930140E050E068E87FEC82E090E02BD329
:104820002B833C831982612C712C0BC086E10E9482
:10483000141C4981242F30E02817390711F081E03A
:1048400089839A81913001F584E10E94141C892B9F
:10485000D9F4E8EB4E16EBE05E0640F00F2EF8EBD5
:104860004F2EF02D0F2EFBE05F2EF02D920140E039
:1048700050E060E17FE985E090E0FDD22D833E834A
:104880001A82412C512C7BCF84E10E94141CFA81A6
:104890002F2F30E02817390709F06FCF70CF50580D
:1048A000BB27AA270ED0FDC1EED130F0F3D120F006
:1048B00031F49F3F11F41EF4D3C10EF4E095E7FBF1
:1048C000C9C1E92FFFD180F3BA17620773078407C4
:1048D000950718F071F49EF517C20EF4E0950B2EB3
:1048E000BA2FA02D0B01B90190010C01CA01A00142
:1048F0001124FF27591B99F0593F50F4503E68F19D
:104900001A16F040A22F232F342F4427585FF3CFDD
:10491000469537952795A795F0405395C9F77EF4AE
:104920001F16BA0B620B730B840BBAF09150A1F0F7
:10493000FF0FBB1F661F771F881FC2F70EC0BA0F7D
:10494000621F731F841F48F4879577956795B79505
:10495000F7959E3F08F0B3CF9395880F08F09927FD
:10496000EE0F97958795089551D108F481E0089549
:104970000CD097C18FD140F086D130F021F45F3F49
:1049800019F068C15111C1C16BC19CD198F3992331
:10499000C9F35523B1F3951B550BBB27AA27621703
:1049A0007307840738F09F5F5F4F220F331F441F48
:1049B000AA1FA9F333D00E2E3AF0E0E830D0915080
:1049C0005040E695001CCAF729D0FE2F27D0660F6D
:1049D000771F881FBB1F261737074807AB07B0E8AC
:1049E00009F0BB0B802DBF01FF2793585F4F2AF0C2
:1049F0009E3F510568F02EC188C15F3FECF3983EA1
:104A0000DCF3869577956795B795F7959F5FC9F71E
:104A1000880F911D9695879597F90895E1E0660FA7
:104A2000771F881FBB1F621773078407BA0720F020
:104A3000621B730B840BBA0BEE1F88F7E095089589
:104A4000BEE304D008F490E80895BFE3222733279B
:104A5000A90140D158F19F5740F1B91738F1BFE390
:104A6000B91B9927B8503AF4660F771F881F991F12
:104A7000B395D2F316C0B8504AF0232F342F452FE8
:104A8000562F672F782F8827B850BAF7B85F49F0AC
:104A90008695779567955795479537952795BA9554
:104AA000B9F70EF4E0D088940895889460E070E03F
:104AB000CB01089504D06894B11127C108950AD19B
:104AC00088F09F5790F0B92F9927B751A0F0D1F0F7
:104AD000660F771F881F991F1AF0BA95C9F712C081
:104AE000B13081F011D1B1E008950EC1672F782F58
:104AF0008827B85F39F0B93FCCF3869577956795ED
:104B0000B395D9F73EF490958095709561957F4F58
:104B10008F4F9F4F0895E89409C097FB3EF49095FE
:104B20008095709561957F4F8F4F9F4F9923A9F086
:104B3000F92F96E9BB279395F69587957795679515
:104B4000B795F111F8CFFAF4BB0F11F460FF1BC059
:104B50006F5F7F4F8F4F9F4F16C0882311F096E9EC
:104B600011C0772321F09EE8872F762F05C066239A
:104B700071F096E8862F70E060E02AF09A95660F53
:104B8000771F881FDAF7880F9695879597F908950C
:104B9000E894F92F96EBFF2381F012161306140602
:104BA000440B9395F6958795779567955795404073
:104BB000FF23B9F71BC099270895882351F4985013
:104BC000D2F7872B762F652F542F432F322F20E0DB
:104BD000B1F3121613061406440B88233AF09A9583
:104BE000440F551F661F771F881FCAF755234AF4C5
:104BF000440F551F11F460FF04C06F5F7F4F8F4F4C
:104C00009F4F880F9695879597F90895990F0008FB
:104C1000550FAA0BE0E8FEEF16161706E807F9078E
:104C2000C0F012161306E407F50798F0621B730B29
:104C3000840B950B39F40A2661F0232B242B252BAA
:104C400021F408950A2609F4A140A6958FEF811D4D
:104C5000811D089597F99F6780E870E060E00895EE
:104C60009FEF80EC08959095809570956095509594
:104C70004095309521953F4F4F4F5F4F6F4F7F4F7E
:104C80008F4F9F4F089500240A9416161706180692
:104C90000906089500240A94121613061406050640
:104CA0000895092E0394000C11F4882352F0BB0FD1
:104CB00040F4BF2B11F460FF04C06F5F7F4F8F4F34
:104CC0009F4F089557FD9058440F551F59F05F3F6F
:104CD00071F04795880F97FB991F61F09F3F79F01E
:104CE00087950895121613061406551FF2CF4695A0
:104CF000F1DF08C0161617061806991FF1CF869522
:104D00007105610508940895E894BB276627772705
:104D1000CB0197F908957ADF08F48FEF08950BD04F
:104D2000C0CFB1DF28F0B6DF18F0952309F092CF9D
:104D300097CF1124EACFC6DFA0F3959FD1F3950F4B
:104D400050E0551F629FF001729FBB27F00DB11D0F
:104D5000639FAA27F00DB11DAA1F649F6627B00D9F
:104D6000A11D661F829F2227B00DA11D621F739F88
:104D7000B00DA11D621F839FA00D611D221F749F96
:104D80003327A00D611D231F849F600D211D822FDD
:104D9000762F6A2F11249F5750408AF0E1F0882324
:104DA0004AF0EE0FFF1FBB1F661F771F881F915031
:104DB0005040A9F79E3F510570F04CCFA6CF5F3F02
:104DC000ECF3983EDCF3869577956795B795F79564
:104DD000E7959F5FC1F7FE2B880F911D96958795EC
:104DE00097F90895AA1BBB1B51E107C0AA1FBB1F5F
:104DF000A617B70710F0A61BB70B881F991F5A9567
:104E0000A9F780959095BC01CD01089597FB072ED9
:104E100016F4009406D077FD08D0E4DF07FC05D037
:104E20003EF4909581959F4F0895709561957F4FC1
:104E30000895A1E21A2EAA1BBB1BFD010DC0AA1FDB
:104E4000BB1FEE1FFF1FA217B307E407F50720F0F3
:104E5000A21BB30BE40BF50B661F771F881F991F6E
:104E60001A9469F760957095809590959B01AC01B7
:104E7000BD01CF010895052E97FB16F400940FD0C5
:104E800057FD05D0D6DF07FC02D046F408C0509588
:104E90004095309521953F4F4F4F5F4F0895909526
:104EA0008095709561957F4F8F4F9F4F0895EE0FBE
:104EB000FF1F0590F491E02D0994A29FB001B39FCC
:104EC000C001A39F700D811D1124911DB29F700D13
:104ED000811D1124911D0895DF93CF931F930F938C
:104EE0009A9DF02D219FF00D8B9DF00D8A9DE02D58
:104EF000F10D039FF00D029FE00DF11D4E9DE00DA1
:104F0000F11D5E9DF00D4F9DF00D7F936F93BF924D
:104F1000AF925F934F93D501D0DF8B01AC01D701E6
:104F2000CCDFEB01E80FF91FD6011FD02F913F9185
:104F3000D601C3DFC60FD71FE81FF91FAF91BF917E
:104F400014D02F913F91B9DFC60FD71FE81FF91F6B
:104F5000D601B3DFE60FF71F9801BE01CF01112480
:104F60000F911F91CF91DF910895A7DF460F571F33
:104F7000C81FD91F08F431960895FB01DC0102C057
:104F800001900D9241505040D8F708950F931F9310
:104F9000CF93DF93E0916427F0916527238121FF70
:104FA0001BC0EC0100E010E08991609164277091D2
:104FB0006527DB011896ED91FC911997882331F054
:104FC0000995892B89F30FEF1FEFEECF8AE0099542
:104FD000892B11F4C80102C08FEF9FEFDF91CF91B1
:0A4FE0001F910F910895F894FFCF80
:104FEA00E70261016B016D01830223015B016F011D
:104FFA006D010000040309046A201E200000262017
:10500A0022200A20002009024300020100C03209BE
:10501A000400000102020100052400100104240218
:10502A000205240600010524010301070582034045
:10503A00001009040100020A00000007058102406D
:10504A0000000705020240000000120100020200EF
:10505A000040EB03042400010000000100000003EB
:10506A0000000000C31FD51F0000496E6963696113
:10507A006C697A6163696F6E20436F7272656374DB
:10508A0061004572726F7220656E20696E6963698C
:10509A006F0053656E736F72206465206765737461
:1050AA006F7320616374697661646F0066616C6C0A
:1050BA006F20656E20696E6963696F2073656E7310
:1050CA006F7220646520676573746F7300496E742C
:1050DA00657272757063696F6E2061637469766157
:1050EA00646F0066616C6C6F20656E20696E69631F
:1050FA00696F20696E74657272757063696F6E008C
:10510A0055502000444F574E20004C45465420002D
:10511A00524947485420004E4541522000464152C8
:08512A0020004E4F4E4520000D
:00000001FF
